:020000040800F2
:1000000000040020110D0008E10E0008E10E0008B8
:10001000E10E0008E10E0008E10E0008E10E000804
:10002000E10E0008E10E0008E10E0008010F0008D3
:10003000E10E0008E10E0008E10E0008C10F000803
:10004000E10E0008E10E0008E10E0008E10E0008D4
:10005000E10E0008E10E0008E10E0008E10E0008C4
:10006000E10E0008E10E0008E10E0008E17400084E
:10007000117500084175000871750008A175000828
:10008000D175000801760008917A0008417D0008CA
:10009000917D0008117E0008917E0008E10E0008A5
:1000A000E10E0008918A0008E10E0008C18A0008EC
:1000B000E10E0008E10E0008E10E0008E10E000864
:1000C000E10E0008E10E0008E10E0008E10E000854
:1000D000E10E0008118E0008E10E0008E10E000894
:1000E000E10E0008E10E0008E10E0008E10E000834
:1000F000E10E0008E10E0008E10E0008317600086C
:10010000E10E0008E10E0008E10E0008E10E000813
:10011000E10E0008E10E0008E10E0008E10E000803
:100120006176000891760008C1760008F176000833
:1001300021770008E10E0008E10E0008E10E00083A
:10014000E10E0008E10E0008E10E0008B188000889
:100150005177000881770008B1770008318E0008D8
:10016000E10E0008E10E0008E10E0008E10E0008B3
:10017000E10E0008E10E0008E10E0008E10E0008A3
:10018000E10E0008E10E0008E10E0008E10E000893
:10019000E10E0008E10E0008E10E0008E10E000883
:0C01A000E10E0008E10E0008E10E00086E
:1001B00081F0004102E000BF83F0004330B54FEA18
:1001C00041044FEA430594EA050F08BF90EA020F85
:1001D0001FBF54EA000C55EA020C7FEA645C7FEA18
:1001E000655C00F0E2804FEA5454D4EB5555B8BF3B
:1001F0006D420CDD2C4480EA020281EA030382EAAC
:10020000000083EA010180EA020281EA0303362D3D
:1002100088BF30BD11F0004F4FEA01314FF4801C10
:100220004CEA113102D0404261EB410113F0004F22
:100230004FEA03334CEA133302D0524263EB4303D9
:1002400094EA050F00F0A780A4F10104D5F1200E77
:100250000DDB02FA0EFC22FA05F2801841F10001D2
:1002600003FA0EF2801843FA05F359410EE0A5F1A6
:1002700020050EF1200E012A03FA0EFC28BF4CF0D7
:10028000020C43FA05F3C01851EBE37101F000458D
:1002900007D54FF0000EDCF1000C7EEB00006EEB9A
:1002A0000101B1F5801F1BD3B1F5001F0CD3490824
:1002B0005FEA30004FEA3C0C04F101044FEA44527B
:1002C00012F5800F80F09A80BCF1004F08BF5FEA02
:1002D000500C50F1000041EB045141EA050130BDE2
:1002E0005FEA4C0C404141EB010111F4801FA4F185
:1002F0000104E9D191F0000F04BF01460020B1FADA
:1003000081F308BF2033A3F10B03B3F120020CDA11
:100310000C3208DD02F1140CC2F10C0201FA0CF0EF
:1003200021FA02F10CE002F11402D8BFC2F1200C54
:1003300001FA02F120FA0CFCDCBF41EA0C0190400A
:10034000E41AA2BF01EB0451294330BD6FEA040453
:100350001F3C1CDA0C340EDC04F11404C4F120023E
:1003600020FA04F001FA02F340EA030021FA04F350
:1003700045EA030130BDC4F10C04C4F1200220FAA7
:1003800002F001FA04F340EA0300294630BD21FAE5
:1003900004F0294630BD94F0000F83F4801306BFAB
:1003A00081F480110134013D4EE77FEA645C18BF9F
:1003B0007FEA655C29D094EA050F08BF90EA020F36
:1003C00005D054EA000C04BF1946104630BD91EA2E
:1003D000030F1EBF0021002030BD5FEA545C05D131
:1003E0004000494128BF41F0004130BD14F5800470
:1003F0003CBF01F5801130BD01F0004545F0FE41E4
:1004000041F470014FF0000030BD7FEA645C1ABF18
:10041000194610467FEA655C1CBF0B46024650EA4F
:10042000013406BF52EA033591EA030F41F400217B
:1004300030BD00BF90F0000F04BF0021704730B501
:100440004FF4806404F132044FF000054FF00001D6
:1004500050E700BF90F0000F04BF0021704730B597
:100460004FF4806404F1320410F0004548BF40426C
:100470004FF000013EE700BF42004FEAE2014FEAC1
:1004800031014FEA02701FBF12F07F4393F07F4F9C
:1004900081F06051704792F0000F14BF93F07F4FCE
:1004A000704730B54FF4607401F0004521F0004111
:1004B00020E700BF50EA010208BF704730B54FF097
:1004C00000050AE050EA010208BF704730B511F09C
:1004D000004502D5404261EB41014FF4806404F1D4
:1004E00032045FEA915C3FF4DCAE4FF003025FEA56
:1004F000DC0C18BF03325FEADC0C18BF033202EBDE
:10050000DC02C2F1200300FA03FC20FA02F001FA37
:1005100003FE40EA0E0021FA02F11444C1E600BFD6
:1005200080F0004002E000BF81F0004142001FBFA8
:100530005FEA410392EA030F7FEA226C7FEA236CB1
:100540006AD04FEA1262D2EB1363C1BFD2184140A6
:1005500048404140B8BF5B42192B88BF704710F03C
:10056000004F40F4000020F07F4018BF404211F0DF
:10057000004F41F4000121F07F4118BF494292EA47
:10058000030F3FD0A2F1010241FA03FC10EB0C0073
:10059000C3F1200301FA03F100F0004302D5494200
:1005A00060EB4000B0F5000F13D3B0F1807F06D3AD
:1005B00040084FEA310102F10102FE2A51D2B1F1A5
:1005C000004F40EBC25008BF20F0010040EA03009A
:1005D0007047490040EB000010F4000FA2F1010247
:1005E000EDD1B0FA80FCACF1080CB2EB0C0200FAD1
:1005F0000CF0AABF00EBC25052421843BCBFD0401F
:100600001843704792F0000F81F4000106BF80F498
:1006100000000132013BB5E74FEA41037FEA226C5B
:1006200018BF7FEA236C21D092EA030F04D092F026
:10063000000F08BF0846704790EA010F1CBF00205A
:10064000704712F07F4F04D1400028BF40F00040B7
:10065000704712F100723CBF00F50000704700F0D7
:10066000004343F0FE4040F4000070477FEA2262FE
:1006700016BF08467FEA23630146420206BF5FEACF
:10068000412390EA010F40F4800070474FF00003CF
:1006900004E000BF10F0004348BF40425FEA000C96
:1006A00008BF704743F0964301464FF000001CE03E
:1006B00050EA010208BF70474FF000030AE000BF94
:1006C00050EA010208BF704711F0004302D54042D2
:1006D00061EB41015FEA010C02BF84460146002044
:1006E00043F0B64308BFA3F18053A3F50003BCFA5F
:1006F0008CF2083AA3EBC25310DB01FA02FC63440C
:1007000000FA02FCC2F12002BCF1004F20FA02F212
:1007100043EB020008BF20F00100704702F1200205
:1007200001FA02FCC2F1200250EA4C0021FA02F266
:1007300043EB020008BF20EADC70704700000000B5
:100740004FF0FF0C1CEAD0521EBF1CEAD15392EAB4
:100750000C0F93EA0C0F6FD01A4480EA010C400290
:1007600018BF5FEA41211ED04FF0006343EA5010EA
:1007700043EA5111A0FB01310CF00040B1F5000F2C
:100780003EBF490041EAD3715B0040EA010062F1DB
:100790007F02FD2A1DD8B3F1004F40EBC25008BFC5
:1007A00020F00100704790F0000F0CF0004C08BFE3
:1007B00049024CEA502040EA51207F3AC2BFD2F1B0
:1007C000FF0340EAC250704740F400004FF00003BE
:1007D000013A5DDC12F1190FDCBF00F000407047F8
:1007E000C2F10002410021FA02F1C2F1200200FA36
:1007F00002FC5FEA310040F1000053EA4C0308BFFD
:1008000020EADC70704792F0000F00F0004C02BF4D
:10081000400010F4000F013AF9D040EA0C0093F0C8
:10082000000F01F0004C02BF490011F4000F013B22
:10083000F9D041EA0C018FE70CEAD15392EA0C0F90
:1008400018BF93EA0C0F0AD030F0004C18BF31F0FB
:10085000004CD8D180EA010000F00040704790F0D1
:10086000000F17BF90F0004F084691F0000F91F075
:10087000004F14D092EA0C0F01D142020FD193EA3B
:100880000C0F03D14B0218BF084608D180EA0100C3
:1008900000F0004040F0FE4040F40000704740F09F
:1008A000FE4040F4400070474FF0FF0C1CEAD0526D
:1008B0001EBF1CEAD15392EA0C0F93EA0C0F69D0C9
:1008C000A2EB030280EA010C49024FEA402037D034
:1008D0004FF0805343EA111143EA10130CF000402B
:1008E0008B4238BF5B0042F17D024FF4000C8B421B
:1008F00024BF5B1A40EA0C00B3EB510F24BFA3EBFB
:10090000510340EA5C00B3EB910F24BFA3EB9103CA
:1009100040EA9C00B3EBD10F24BFA3EBD10340EA24
:10092000DC001B0118BF5FEA1C1CE0D1FD2A3FF66A
:1009300050AF8B4240EBC25008BF20F0010070471F
:100940000CF0004C4CEA50207F32C2BFD2F1FF03C2
:1009500040EAC250704740F400004FF00003013AF3
:1009600037E792F0000F00F0004C02BF400010F497
:10097000000F013AF9D040EA0C0093F0000F01F0AB
:10098000004C02BF490011F4000F013BF9D041EACD
:100990000C0195E70CEAD15392EA0C0F08D1420200
:1009A0007FF47DAF93EA0C0F7FF470AF084676E7D3
:1009B00093EA0C0F04D14B023FF44CAF08466EE7AC
:1009C00030F0004C18BF31F0004CCAD130F000427A
:1009D0007FF45CAF31F000437FF43CAF5FE700BFD2
:1009E00042000ED2B2F1FE4F0BD34FF09E03B3EB99
:1009F000126209D44FEA002343F0004323FA02F0C5
:100A000070474FF00000704712F1610F01D14202B0
:100A100002D14FF0FF3070474FF00000704700BF29
:100A200040F60003C2F2000370B41D6810F8013BE9
:100A3000EC181A46647804F00304012C11F8014BF9
:100A400008BF03F120022E192346767806F003062C
:100A5000012E08BF04F12003D21A01D1002BE5D1E9
:100A6000104670BC704700BF00000000000000008E
:100A700080EA010212F0030F3AD110F0030220F0D5
:100A8000030021F0030150F804CB08BF51F8043BE8
:100A90000DD082F003024FEAC2026FF07F4323FAC7
:100AA00002F251F8043B4CEA020C43EA020300BF95
:100AB000ACF101329C4501BF22EA0C0212F0803FEA
:100AC00050F804CB51F8043BF2D04FEA0C604FEAE7
:100AD0001C2C012828BFB0EB036F08BF1B0AF4D001
:100AE00003F0FF034FEA1060A0EB0300704700BF64
:100AF00010F0030F0AD010F8012B11F8013B012A66
:100B000028BF9A42F4D0A2EB030070474DF8045D71
:100B10004DF8044D4FF0010242EA022242EA02423D
:100B200001F0030C21F0030150F8044B51F8045B71
:100B3000BCF1020F26D04BD824F07F4CBCEB152F14
:100B4000A4EB020323EA04030DD113EAC21308BF86
:100B500051F8045B0AD18CEA040CBCEB056F0CD194
:100B600050F8044BE8E74FEA15255CE033F07F438B
:100B700052D10D784FEA146C55E04FEA146C05F031
:100B8000FF0550E04FEA044CA4EB02034FEA1C4C73
:100B900023EA0403BCEB154F17D113EAC21308BFB5
:100BA00051F8045B07D18CEA040CBCEB054F08D16B
:100BB00050F8044BE6E71B042ED10D884FEA144C85
:100BC00031E04FEA05454FEA144C4FEA15452AE05B
:100BD00004F0FF0CBCEB156FA4EB020323EA040343
:100BE0000DD113EAC21308BF51F8045B0AD18CEA95
:100BF000040CBCEB052F0AD150F8044BE8E74FEA90
:100C0000156510E014F0FF0F06D051F8045B4FEAB1
:100C1000142C25F07F4506E04FF000005DF8044BF2
:100C20005DF8045B70470CF0FF0205F0FF0001283F
:100C300028BF904204BF4FEA1C2C2D0AF3D0A2EB30
:100C400000005DF8044B5DF8045B70470000000095
:100C5000F0B40478002C20D00F78064630468FB1CF
:100C6000A7421CD04B1C01E0944211D01D4613F842
:100C7000012B002AF8D17478701C44B10646304626
:100C8000002FEDD174780D46701C002CF6D12A7817
:100C9000002A08BF0020F0BC70472046FBE73A4618
:100CA000F6E700BF000000000000000000000000A8
:100CB000F0B40646047874B10F780546064657B17D
:100CC000BC4218BF0A4602D108E09C4206D012F886
:100CD000013F002BF9D1301AF0BC70476C786E1CC4
:100CE000002CF8D03546EBE70000000000000000C3
:100CF000704700BFAFF30080AFF30080AFF3008018
:100D0000FEE700BFAFF30080AFF30080AFF30080D9
:100D100072B6634880F30988022383F31488BFF313
:100D20006F8F604A604CA24217D213464FF0553184
:100D300043F8041BD643A519A342C5F380050CD282
:100D400025B1196002F10803A34206D21A4642F8FF
:100D5000041B5960131DA342F8D3544A824217D290
:100D600013464FF0553143F8041BD54344198342D1
:100D7000C4F380040CD224B1196002F10803834249
:100D800006D21E4646F8041B5960331D8342F8D331
:100D900008F0DEF8464C4749A14222D246480246B6
:100DA0000B4652F8046B43F8046BCD4304EB050C7F
:100DB000A342CCF3800514D23DB116681E6001F148
:100DC0000803A34200F108020BD21146184651F85D
:100DD000045B40F8045B52685A60031D0A1DA3427D
:100DE000F3D3364A3648824217D21346002143F8DD
:100DF000041BD44300EB040E8342CEF380040CD2D8
:100E000024B1196002F10803834206D21E4646F857
:100E1000041B5960331D8342F8D32A4D2A4EFFF735
:100E200067FFB54219D22C46E94354F8043B7718C2
:100E30009847B442C7F380070FD22FB1236805F15A
:100E400008049847B44208D2254655F8042B904729
:100E500060682C1D8047B442F6D31C4D1C4E09F02F
:100E60004FFDB5421AD22C46EF4354F8043B06EB33
:100E7000070CCCF380079847B4420FD22FB12268F9
:100E800005F108049047B44208D2254655F8040BF2
:100E9000804761682C1D8847B442F6D3FFF730BF06
:100EA00000080020000000200004002000040020B2
:100EB0001809002000080020A8C500081809002013
:100EC00064200020AC010008AC010008AC0100085F
:100ED000AC010008AFF30080AFF30080AFF30080F7
:100EE000FEE700BFAFF30080AFF30080AFF30080F8
:100EF00000F08EFA00DF00BFAFF30080AFF3008098
:100F0000EFF30983203383F30988002383F31188E7
:100F1000704700BFAFF30080AFF30080AFF30080F5
:100F2000094B002210B59A60084A07201021DA60A8
:100F300000F08EF80A20202100F08AF80B20802192
:100F4000BDE8104000F084B800ED00E00003FA05B1
:100F5000202383F311881548436813F4006316D0E7
:100F6000EFF30983203B4FF08072DA6183F3098845
:100F70000F498A69D07F68B1086892688168914298
:100F800094BF0022012272B10A4A9A61704783F32A
:100F900011887047086892688168914234BF0022C6
:100FA0000122002AF0D104499961704700ED00E068
:100FB000500A0020F10E0008F40E0008AFF3008084
:100FC00010B5202383F3118800F09AF8002383F3EF
:100FD0001188BDE81040FFF7BBBF00BFAFF3008032
:100FE0002DE9F04FC1F80CD0D0F80CD0BDE8F08F4F
:100FF000002383F311882846A04700F019FB7047AF
:10100000F0B484080E4BC03400F0030253F824708F
:10101000D500FF264209AE4027EA060611FA05F57B
:1010200000F01F0002F16007012111FA00F02E43C9
:1010300043F8246043F8270043F82200F0BC7047CF
:1010400000E100E0AFF30080AFF30080AFF3008079
:1010500030B48508084BAA1D00F0030053F8225055
:10106000C000FF24844025EA040411FA00F0044380
:1010700043F8224030BC704700ED00E0AFF3008041
:101080000248034A83699A61FEE700BF500A0020C4
:10109000C0AE0008AFF30080AFF30080AFF3008074
:1010A00010B582B0FFF73CFF00F0DAF800F058F816
:1010B00001F096FB01F0DCFB40210B4800F0B8F991
:1010C0000A49012288610277002383F3118862B6FE
:1010D000074C896907488C611C46E021064B009447
:1010E00000F0F6F902B010BD18090020500A0020E7
:1010F000D0AE00086009002081100008AFF3008026
:1011000070B5134B9B69DA7F0AB1013ADA771A6A34
:10111000104C511C1962E3682168581CA142E06020
:1011200015D08D68013D8D608DB926460B68CA6863
:101130005E602360CD602B4683F311880869904779
:10114000202383F31188216888680028EED070BDC1
:10115000500A0020400A0020AFF30080AFF3008067
:10116000044B4FF0FF3000225B601B609860DA6038
:10117000704700BF400A0020AFF30080AFF300804B
:1011800070B40C4D03612C68C260A668B14204D9EA
:101190002468891BA6688E42FAD363680460AC4257
:1011A000436018606060816002D0A068411AA1604D
:1011B00070BC7047400A0020AFF30080AFF300809E
:1011C0000368074A934203D0996882688918996036
:1011D00042681360016800234A60C360704700BF23
:1011E000400A0020AFF30080AFF30080AFF300802F
:1011F000202383F31188037F0D2B11D8DFE803F040
:1012000024101007100B101010101010100B416A52
:101210008B685A1C8A60416803680B6002685160E1
:101220004FF0FF3242620A4B8168002202771B684E
:101230009A689142FBD95968036041600860586020
:10124000002383F311887047002383F311887047CC
:10125000500A0020AFF30080AFF30080AFF30080AE
:10126000034B00225B601B609A605B611B617047EF
:10127000500A0020AFF30080AFF30080AFF300808E
:101280000022064B816802771B689A688A42FBD26B
:10129000596803604160086058607047500A002038
:1012A000084B996910B414240877CC771A68012088
:1012B00014681077104663601C609A6110BCFFF7D9
:1012C0008FBE00BF500A0020AFF30080AFF3008054
:1012D00030B5B1F1FF3F87B0054611D00A4C0B4A3B
:1012E000A36901A8FFF74CFF2846FFF7D9FF049B2D
:1012F00013B101A8FFF764FFA069406A07B030BDD1
:10130000FFF7CEFF004CF7E7500A0020F11100086C
:1013100030B4144C8568A2690346906859628542CE
:101320000CD800221A772468A0688542FBD961682E
:101330001C6059600B60636030BC704700251577F6
:10134000214609688D68A842FBD948681160506041
:10135000026001204A60187711461846A36130BC2C
:10136000FFF73EBE500A0020AFF30080AFF30080CD
:101370000D4B18689969026810B453601A60012215
:1013800002771422CA7700228C680A7798611B685A
:101390009A68A242FBD25A680B604A601160596099
:1013A00010BCFFF71DBE00BF500A0020AFF3008045
:1013B0000C4B18689969026810B453601A600122D6
:1013C000027700228C680A7798611B689A689442B9
:1013D000FBD35A680B604A601160596010BCFFF77C
:1013E000FFBD00BF500A0020AFF30080AFF30080C4
:1013F000044A9069116883688A689A4200D87047E5
:10140000FFF7D6BF500A0020AFF30080AFF3008093
:1014100003498869C37F0BB1FFF7CABFFFF7A8BFB5
:10142000500A0020AFF30080AFF30080AFF30080DC
:10143000F0B400220D4C42770226012514230677D2
:10144000C37785776569016400F12C0600F12807F0
:10145000046181604561C26360618263026282618E
:10146000286187620663C662F0BC7047500A00209C
:101470002439F0B44718C7604350049B0F497B6080
:10148000396200250E4E4577022314210127C177CA
:10149000877703777369026400F12C0100F1280754
:1014A000066182604361C563706185630562856121
:1014B000186187620163C162F0BC7047F10F0008D8
:1014C000500A0020AFF30080AFF30080AFF300803C
:1014D00010B59C4682B0202383F31188049C634698
:1014E0000094FFF7C5FF00210446FFF711FF00231A
:1014F00083F31188204602B010BD00BFAFF3008017
:1015000010B5202383F31188084B9B691C6C9A68E3
:10151000944201D0824200D298601864FFF768FFBD
:10152000002383F31188204610BD00BF500A00201D
:1015300010B52023044683F311880021FFF7E8FE4D
:10154000002383F31188204610BD00BFAFF3008055
:10155000202383F31188417F41F004034377002364
:1015600083F31188704700BFAFF30080AFF30080B2
:1015700008B50146202383F311880620FFF7A8FE53
:10158000002383F3118808BDAFF30080AFF3008020
:1015900008B5202383F31188054BD968411A02D07E
:1015A0000620FFF795FE002383F3118808BD00BFD6
:1015B000400A0020AFF30080AFF30080AFF300805B
:1015C00008B5202383F31188064A9069116883685F
:1015D0008A689A4201D3FFF7CBFE002383F3118878
:1015E00008BD00BF500A0020AFF30080AFF30080B9
:1015F0000E4B70B59C692546606255F8280FA842CD
:1016000006D00168A162FFF73BFEA06AA842F8D1AC
:10161000607F10F0030F04D16369216919612269A9
:1016200053610E20BDE87040FFF73ABE500A00201B
:10163000202383F31188FFF7DBBF00BFAFF30080E7
:1016400038B50446202383F31188037F0E2B07D07F
:10165000826A0848816907200A60A162FFF720FEBC
:10166000656A002383F31188204600F019F82846A4
:1016700038BD00BF500A0020AFF30080AFF30080F8
:10168000202383F31188817F4B1C8377002383F30E
:1016900011887047AFF30080AFF30080AFF3008094
:1016A0000146202383F31188827F531EDAB28277AA
:1016B000002383F3118822B990F81CC0BCF10E0FEF
:1016C00000D07047437F03F00303012B09D0022BA6
:1016D000F7D143690269406C1A610A69536101F0EC
:1016E000F7B9436902691A6101694B6101F028B9D0
:1016F00070B582B00C4615461E4601F0D9F8A8B167
:10170000202383F311882146069C33462A46009401
:10171000FFF7AEFE0123437700210446FFF7F8FDF3
:10172000002383F31188204602B070BD0446FAE717
:10173000F0B583B004460D4616461F4601F0B0F9D9
:10174000A8B1202383F31188616800972A463346A5
:10175000FFF78EFE02234377446400210546FFF71E
:10176000D7FD002383F31188284603B0F0BD05465A
:10177000FAE700BFAFF30080AFF30080AFF3008063
:10178000202383F3118804480069817F4B1C8377F1
:10179000002383F311887047500A0020AFF30080C4
:1017A00010B5202383F311880A4B04699C4209D0A9
:1017B000A27F511CA177002383F31188FFF770FFEC
:1017C000204610BD0024002383F31188FFF768FF33
:1017D000204610BD500A0020AFF30080AFF3008018
:1017E0004060006081607047AFF30080AFF300801D
:1017F000F8B5876881600137002F044629DC40680E
:10180000436863601C60FFF73BFD6FF0010607F063
:10181000010346627D1CEFB14BB1606841686160B5
:101820000C60FFF72DFD0135012D466213D0606875
:10183000436863601C60FFF723FD4662606842688E
:1018400062601460FFF71CFD691C466202350029C6
:10185000EDD1F8BDF8BDF8BDAFF30080AFF3008067
:1018600008B5202383F31188FFF7C2FFFFF7C0FDFF
:10187000002383F3118808BDAFF30080AFF300802D
:1018800081684A1E002A10B50346826001DB0020F1
:1018900010BD074CA269506241681060516003207E
:1018A0005A600A60FFF7FCFCA369586A10BD00BFCC
:1018B000500A0020AFF30080AFF30080AFF3008048
:1018C00008B5202383F31188FFF7DAFF002383F3A1
:1018D000118808BDAFF30080AFF30080AFF3008044
:1018E00003468068421E002A10B49A6002DB002082
:1018F00010BC704759B10848826953625C68136034
:10190000032054605A60226010BCFFF7E1BC98606D
:101910004FF0FF30ECE700BF500A0020AFF300802B
:1019200008B5202383F31188FFF7DAFF002383F340
:10193000118808BDAFF30080AFF30080AFF30080E3
:1019400008B50246202383F3118881684B1C002BC5
:10195000836003DD002383F3118808BD00680368FA
:10196000002113605A60FFF7D3FC002383F3118832
:1019700008BD00BFAFF30080AFF30080AFF300807D
:1019800003468068421C002A9A6000DD70471A688E
:101990001168104619604B6000235362FFF770BC5A
:1019A000F8B50D1E044637DD816800264B1C6F1EFE
:1019B000B342836007F001072FDD013D2CD07FB1DA
:1019C000A1684B1C002BA3602FDD013D08D134E042
:1019D000A068411C013D0029A16013DD013D1AD022
:1019E000A268501C0028A060F2DC20680368236015
:1019F0005C60FFF745FC4662A068411C013D002980
:101A0000A160EBDC2068036823605C60FFF738FCB2
:101A1000013D4662E4D1F8BDF8BD0068026822606D
:101A20005460FFF72DFC4662C7E720680268226019
:101A30005460FFF725FC4662C7E7F8BDAFF30080AE
:101A400010B5024682B0202383F3118883680133E6
:101A5000002B836019DD8A68501E0028886007DB30
:101A6000FFF7C6FC0020002383F3118802B010BDED
:101A70000B4C4B68A4690320216063604C601C60C0
:101A80006162FFF70DFC606AEDE7006803681360B0
:101A90005A600191FFF7F4FB002141620199DAE7F6
:101AA000500A0020AFF30080AFF30080AFF3008056
:101AB0000023406000608360704700BFAFF3008088
:101AC0002DE9F0412E4B054680689C69002850D0D6
:101AD000A26881688A4206D9037F8260042B30D0D5
:101AE000052B1BD093B12B461B689D4203D09868F1
:101AF000A1688842F8D25A682360042062601460AA
:101B00005C606562BDE8F041FFF7CABB43680268EC
:101B10001A6001684B60FFF7B3FBE4E741680768B0
:101B2000466A0F600768334679601B689E4202D0A0
:101B300099689142F9D25A68036042601060586017
:101B4000D1E741680768466A0F60076833467960E5
:101B50001B689E4202D099689142F9D25A6803608C
:101B6000426010605860B068A26883689342B3D343
:101B7000B9E7E36BAC60EB60E563BDE8F08100BF03
:101B8000500A0020AFF30080AFF30080AFF3008075
:101B900008B5202383F31188FFF792FF002383F316
:101BA000118808BDAFF30080AFF30080AFF3008071
:101BB0000246202383F31188836823B10020002389
:101BC00083F31188704705488369D96B9360D160AE
:101BD0000120DA63002383F311887047500A002044
:101BE000174AF8B59269202383F31188D46B2368D0
:101BF000E168A342D1631CD0176C49B108688842E0
:101C000003D08068874238BF0746C9680029F5D1EC
:101C10001D68DE6B97601846256000216C60A3602C
:101C2000E660DC63FFF774FB002383F31188204632
:101C3000F8BD0023A360002383F311882046F8BD7C
:101C4000500A0020AFF30080AFF30080AFF30080B4
:101C5000124B996970B5CC6B2368E268A342CA63E2
:101C600018D00E6C4AB11068904203D0806886424A
:101C700038BF0646D268002AF5D11A68DD6B8E603F
:101C8000184622605460A360E560DC63FFF7F8FA51
:101C9000204670BD0021A160204670BD500A002082
:101CA000134A70B52023946983F31188E36BB3B1B1
:101CB00000251A68D9689A42E16314D01168D66B7E
:101CC000196010464B609A60DE60D363FFF7D8FA64
:101CD000E36B002BEDD1236CA360FFF789FB00239E
:101CE00083F3118870BD9D600B46002BE1D1F2E7B4
:101CF000500A0020AFF30080AFF30080AFF3008004
:101D000040600060704700BFAFF30080AFF3008019
:101D100008B50246202383F311880068904205D05D
:101D20000368002113605A60FFF7F2FA002383F37F
:101D3000118808BDAFF30080AFF30080AFF30080DF
:101D400008B503460068984206D002681A605360DE
:101D5000FFF796FA0023436208BD00BFAFF300808F
:101D600038B504460068A0420AD06FF00105036848
:101D700023605C60FFF784FA45622068A042F6D1D8
:101D800038BD00BFAFF30080AFF30080AFF3008039
:101D900008B5202383F31188FFF7E2FFFFF728FB44
:101DA000002383F3118808BDAFF30080AFF30080F8
:101DB000104B70B505469C69FFF74AFF6562064601
:101DC0002B462A4603E09068A168884210D3126827
:101DD0009542F8D15A682360626014605C60052007
:101DE000FFF75EFA646A3046FFF76AFE204670BD70
:101DF0001346EFE7500A0020AFF30080AFF30080F6
:101E000008B5202383F31188FFF7D2FF002383F363
:101E1000118808BDAFF30080AFF30080AFF30080FE
:101E2000F8B504460E46FFF713FF114B05469869B7
:101E300027464462234603E099688268914214D39E
:101E40001B689C42F8D17C68076044602060786021
:101E500031460520FFF73CFAB0F1FF3F044602D0BF
:101E60002846FFF72DFE2046F8BD1F46EBE700BFD2
:101E7000500A0020AFF30080AFF30080AFF3008082
:101E800008B5202383F31188FFF7CAFF002383F3EB
:101E9000118808BDAFF30080AFF30080AFF300807E
:101EA00030B4202383F31188064C0368A5690B60C6
:101EB0000024016023464D608A60CC6083F3118862
:101EC00030BC7047500A0020AFF30080AFF30080B1
:101ED000202383F31188024602E0994207D01A4674
:101EE00013689842F9D1002383F3118870470B6877
:101EF0001360002383F31188704700BFAFF30080A5
:101F0000202383F31188054A93699A6B22EA000122
:101F10009963002383F3118810407047500A002012
:101F2000202383F3118804498B699A6B10439863CB
:101F3000002383F311887047500A0020AFF300801C
:101F400008B5826B037F41EA0202082B82630CD042
:101F5000092B00D008BD436A02EA03018B42F9D184
:101F6000FFF78EF90022426208BD436A1A42F7D198
:101F700008BD00BFAFF30080AFF30080AFF3008077
:101F800008B5202383F31188FFF7DAFFFFF730FA53
:101F9000002383F3118808BDAFF30080AFF3008006
:101FA00070B50468844205460E460AD0E26860684F
:101FB000A16842EA0603E360FFF7C2FF2468AC426F
:101FC000F4D170BDAFF30080AFF30080AFF30080B9
:101FD00008B5202383F31188FFF7E2FFFFF708FA23
:101FE000002383F3118808BDAFF30080AFF30080B6
:101FF000F8B50D46074699B10024012616FA04F3F8
:102000002B4205D165B1013416FA04F32B42F9D005
:1020100025EA030557F8242020469047002DF2D1E9
:10202000F8BD00BFAFF30080AFF30080AFF30080D6
:1020300038B50D4B05469C69202383F31188A36BAB
:1020400010EA030206D160620820FFF729F9A36BAA
:1020500005EA03025042104023EA0001A163002375
:1020600083F3118838BD00BF500A0020AFF3008011
:1020700038B50B4B05469C69202383F31188A36B6D
:10208000184006D108206562FFF70AF9A36B05EA3C
:10209000030023EA0001A163002383F3118838BD04
:1020A000500A0020AFF30080AFF30080AFF3008050
:1020B00038B50C4B04469D69202383F31188AB6B24
:1020C00000EA0302824204D068620920FFF7E8F8C0
:1020D000AB6B23EA0400A863002383F31188204636
:1020E00038BD00BF500A0020AFF30080AFF300807E
:1020F000134B70B59E690546202383F31188B36B9B
:1021000010EA03040ED121B9234683F31188204637
:1021100070BD70620820FFF7DBF800280CDBB36BA2
:1021200005EA03046242144023EA0400B06300237A
:1021300083F31188204670BD234683F31188F9E7A5
:10214000500A0020AFF30080AFF30080AFF30080AF
:10215000124B70B59E690446202383F31188B36B3C
:1021600010EA03050ED121B92B4683F311882846C6
:1021700070BD70620820FFF7ABF800280ADBB36B74
:1021800004EA030523EA0500B063002383F3118802
:10219000284670BD2B4683F31188F9E7500A0020CA
:1021A00038B5124B04469D69202383F31188AB6B2D
:1021B0001840A0420DD029B90B4683F311880C4674
:1021C000204638BD09206C62FFF782F8002808DB42
:1021D000AB6B23EA0401A963002383F31188204633
:1021E00038BD002383F311881C46F8E7500A00200D
:1021F00038B5114A2023946983F31188057F036B56
:1022000061630C2D00F12C01216061626360046345
:102210001C6007D00A20FFF743F8606A002383F3AD
:10222000118838BDFFF72CF80A20FFF739F8606AEB
:10223000002383F3118838BD500A0020AFF30080DB
:1022400010B5202383F311880B4CA269134653F871
:102250002C0F984208D001684B600B230377D162A2
:10226000002383F3118810BD0C20FFF719F8A26931
:10227000134653F82C0FEEE7500A0020AFF300800E
:1022800008B5202383F31188FFF742F8002383F376
:10229000118808BDAFF30080AFF30080AFF300807A
:1022A00070B504460B4601EB82051C301146E36015
:1022B000A36023606560FFF793FA04F1100000212A
:1022C000BDE87040FFF78CBAAFF30080AFF3008039
:1022D00010B52023044683F3118803684268C36065
:1022E000D11AA3601C308910FFF782FA04F11000A4
:1022F0000021FFF77DFAFFF77BF8002383F31188B5
:1023000010BD00BFAFF30080AFF30080AFF30080DB
:1023100070B504460D461C301146FFF7E1FA06463B
:1023200078B9A368626843F8045B9342A36028BF4E
:10233000236804F1100028BFA360FFF721FBFFF71B
:1023400057F8304670BD00BFAFF30080AFF3008098
:1023500008B5202383F31188FFF7DAFF002383F306
:10236000118808BDAFF30080AFF30080AFF30080A9
:10237000436A002B10B510DD82684468013B43625C
:1023800042F8041BA24228BF0368826028BF836012
:102390001030FFF7F5FA002010BD4FF0FF3010BDF0
:1023A00070B504460D461C301146FFF799FA0646F3
:1023B00060B9E3682268043B9342E36008D304F108
:1023C00010001D60FFF7DCFAFFF712F8304670BD11
:1023D0006068031FE360F2E7AFF30080AFF30080B3
:1023E00008B5202383F31188FFF7DAFF002383F376
:1023F000118808BDAFF30080AFF30080AFF3008019
:10240000436A002B10B510DDC2680468043A013B32
:10241000A2424362C26002D243681A1FC2601030F7
:102420001160FFF7ADFA002010BD4FF0FF3010BD76
:1024300070B504460D4610301146FFF751FA0646B6
:1024400080B9E368626853F8041B93422960E36033
:1024500028BF236804F11C0028BFE360FFF790FA4F
:10246000FEF7C6FF304670BDAFF30080AFF30080CB
:1024700008B5202383F31188FFF7DAFF002383F3E5
:10248000118808BDAFF30080AFF30080AFF3008088
:102490008369002B10B511DDC2684468013B83617C
:1024A00052F8043BA2420B6028BF0368C26028BFF9
:1024B000C3601C30FFF764FA002010BD4FF0FF30FE
:1024C00010BD00BFAFF30080AFF30080AFF300801A
:1024D00010B4034619B94FF0FF3010BC7047064CDA
:1024E000A2695062446810600D2054605A602260F6
:1024F00010BCFEF7EDBE00BF500A0020AFF3008015
:1025000010B4C361019B40608A180024006084609D
:1025100041618161C1600261036210BC704700BF0C
:1025200038B5C1680446006861610023A042A1611A
:10253000A3600AD06FF00105026822605460FEF7C4
:102540009FFE45622068A042F6D138BDAFF30080FF
:10255000426908B503468069824218D09868013004
:10256000986002F8011B18695A61824201D3DA6847
:102570005A611868984208D0016819604B60FEF7EC
:102580007FFE00234362184608BD002008BD9868FE
:102590000028E4D06FF0030008BD00BFAFF3008057
:1025A00070B5202304460D4683F31188C36903B137
:1025B0009847A6684EB920462946FFF789FF0028AC
:1025C000F7DA334683F3118870BDA3692269013EAF
:1025D000A66013F8010B9342A36124BFE368A361D3
:1025E000002383F3118870BDAFF30080AFF3008048
:1025F0002DE9F0471D4604460E469146D0F81C8052
:10260000202383F311880027B8F1000F01D0204662
:10261000C047D4F808A0BAF1000F0BD120462946D4
:10262000FFF756FF0028F4D0534683F3118838464D
:10263000BDE8F087A3690AF1FF31A16013F8010B2F
:10264000F0552269A361934224BFE368A36100238C
:1026500083F3118801374F45E9D0202383F3118894
:10266000D2E700BFAFF30080AFF30080AFF300808C
:1026700010B4C361019B40608C18006082604161AE
:102680008161C1600461036210BC7047AFF30080D8
:1026900038B50169C368044600686361CA1AA0427C
:1026A000A361A2600AD06FF0010502682260546045
:1026B000FEF7E6FD45622068A042F6D138BD00BFB6
:1026C000F8B504460D461646202383F31188A76803
:1026D0004FB920463146FFF7FBFE0028F7DA3B46AC
:1026E00083F31188F8BD6369013FA76003F8015BBC
:1026F00022696361934224BFE3686361E3690BB1BC
:1027000020469847002383F311881846F8BD00BF80
:1027100082694169914210B5034616D081684C1C0C
:102720009C6012F8014B18699A61824201D3DA6801
:102730009A611868984206D0016819604B60FEF7EC
:102740009FFD00234362204610BD81680029E6D02A
:102750006FF0020010BD00BFAFF30080AFF3008048
:102760002DE9F0471E4604460D461746D0F81C904A
:10277000202383F311884FF00008D4F808A0BAF1A1
:10278000000F21D00AF1FF31A1606369287803F8B6
:10279000010B22696361934224BFE3686361B9F16D
:1027A000000F01D02046C847002383F31188013F62
:1027B00008F1010811D00135202383F31188D4F8E2
:1027C00008A0BAF1000FDDD120463146FFF780FEA8
:1027D0000028D2D0534683F311884046BDE8F087E5
:1027E000054B064A064823F00701064B116020F00E
:1027F00007021A60704700BF6B200020700A00209B
:1028000000C001206C0A0020AFF30080AFF300800D
:10281000202383F31188094A09491368096807309E
:1028200020F00700C91A88429DBF1818106018468A
:102830000020002383F31188704700BF700A002036
:102840006C0A0020AFF30080AFF30080AFF300808C
:10285000024A034910680B68C01A70476C0A0020CE
:10286000700A0020AFF30080AFF30080AFF3008068
:10287000044B0549002203F1100019609A60DA60E8
:10288000FFF716B9780A002011280008AFF300807E
:10289000002303608160C360083A10300B604A6017
:1028A000FFF706B9AFF30080AFF30080AFF300800D
:1028B000F8B5204C002818BF0446073104F1100079
:1028C00021F0070604F10805FFF762F900E01D4654
:1028D0002B68F3B15A689642F9D806F108018A428A
:1028E00014D36FF007005F18D3F800E0C6EB000CBC
:1028F0000CEB020043F801E078602F605E601D463B
:1029000045F8084BFFF76CF92846F8BD1A682A60AD
:10291000F5E7FFF765F92568002DF5D006F1080009
:10292000A84720B10460466000F10805ECE70546C1
:10293000EAE700BF780A0020AFF30080AFF3008021
:1029400070B50646A0F1080450F8080C00F108051F
:102950001030FFF71DF92B46AB4205D0A34203D33D
:102960001A681346AB42F9D11A680AB19442F8D2F8
:10297000616846F8082C1C6001F1080256F8085CF2
:10298000A018A8420AD05A6802F1080E03EB0E0CF8
:10299000A44511D0BDE87040FFF722B94068A258A5
:1029A00009180831616046F8082C5A6802F1080ECF
:1029B00003EB0E0CA445EDD1606856F8081C121804
:1029C00008325A601960E5E7AFF30080AFF300808A
:1029D00038B50E4C002818BF044604F110000D460F
:1029E000FFF7D6F8A3686BB10022144659681B683C
:1029F00052180134002BF9D105B12A60FFF7F0F825
:102A0000204638BD1A461C46F6E700BF780A00206B
:102A10000023036041608260704700BFAFF3008015
:102A200070B4002A35D0013A02F00105202383F367
:102A30001188046800230C60016083F311884368E7
:102A4000C91832B365B1202383F3118804680023C9
:102A50000C60016083F311884368013A194418D06F
:102A6000202383F31188046800230C60016083F342
:102A700011884568013A4C19202383F311880668B0
:102A800000234E51046083F311884168013A2144C8
:102A9000E6D170BC704700BFAFF30080AFF3008099
:102AA00008B50246202383F31188006828B1036823
:102AB0001360002383F3118808BD9368002BF8D0BE
:102AC00050689847002383F3118808BDAFF3008056
:102AD000202383F31188026800230A60016083F3D6
:102AE00011887047AFF30080AFF30080AFF3008030
:102AF000014B01221A7070472D110020AFF30080A6
:102B000038B50B4D4C24286803682D219A689047EE
:102B100028680168013C8B682D219847013CF2D15F
:102B2000034804490068026813680222984738BDC8
:102B30006011002090C10008AFF30080AFF3008067
:102B4000F0B585B0002831D01C496E466F46A1FB18
:102B50000023DB0803EB8302A0EB420C0CF13002F4
:102B6000184607F8012B002BF1D1B7421CD9144DA0
:102B700028683C46026814F8011D9268F31BDF4385
:102B80009047B44207F001070ED02FB9286814F817
:102B9000011D026893689847286814F8011D0268AF
:102BA00093689847B442F1D105B0F0BD044800687D
:102BB00001688B6830219847F6E700BFCDCCCCCCBC
:102BC00060110020AFF30080AFF30080AFF300800E
:102BD00038B5017849B1054D044628680268936804
:102BE000984714F8011F0029F7D138BD6011002063
:102BF00008B5FFF7EDFF0448044900680268136850
:102C00000222984708BD00BF6011002090C1000853
:102C1000202383F3118804490A6802F8010B00237A
:102C20000A6083F31188704730110020AFF30080F1
:102C300041B9054A054901231370054A0B7010601C
:102C400018467047002070472C11002034110020D6
:102C500028110020AFF30080AFF30080AFF30080B5
:102C60002DE9F001194C1A4A23689D1A15F0010F3D
:102C7000164619D0934219D9164611F8015B16F879
:102C8000017BAF4210D016E037460D4617F8018B96
:102C900015F801CBE0450ED196F8018091F801C0FE
:102CA0007E1C691CE04506D1B342EDD80B7813B900
:102CB0002260184607E0074A074901231370074AB4
:102CC0000B7010601846BDE8F0017047301100200D
:102CD000641100202C110020341100202811002044
:102CE000084BDB68521A5B1A934208D3064A074B1B
:102CF00001211170064A19701060084670470020C3
:102D0000704700BF400A00202C1100203411002021
:102D100028110020AFF30080AFF30080AFF30080F4
:102D200010B50C4C206808B1FEF712FC606808B1C1
:102D3000FEF70EFCA06808B1FEF70AFCE06808B1D7
:102D4000FEF706FC206918B1BDE81040FEF700BC94
:102D500010BD00BF4C110020AFF30080AFF3008026
:102D600010B5124C206818B1FEF76AFC00232360EE
:102D7000606820B1FEF764FC0C4800224260A06845
:102D800020B1FEF75DFC094B00219960E06820B19D
:102D9000FEF756FC05480022C260206920B1FEF70C
:102DA0004FFC024B0021196110BD00BF4C110020E7
:102DB0000F4B9A6930B44FF47A7505FB00F4136A2F
:102DC0000C4D611EA5FB01105C1C04EB90108342AE
:102DD000116A03D28B4203D930BC70478B42F6D9BB
:102DE000884294BF002101210029F0D1F4E700BFFF
:102DF000500A0020D34D6210AFF30080AFF3008083
:102E000008B50120FEF7B4FB014BD86808BD00BF30
:102E1000400A0020AFF30080AFF30080AFF30080E2
:102E200038B50C4D00242C70202383F311884FF407
:102E30007A7202FB00F308490848094A5D1EA1FBAB
:102E40000553990901312346FEF79AF9234683F386
:102E5000118838BD2D110020D34D6210381100208B
:102E6000F12A0008AFF30080AFF30080AFF30080D9
:102E70002DE9F04F6A4F6B4C386083B06A48DFF839
:102E800030B26A4DDFF810A2DFF82892DFF828820E
:102E9000FFF7AEFE6648FFF7ABFE6648FFF7A8FEF9
:102EA0006548FFF795FE6548FFF7A2FE6448FFF707
:102EB0008FFE6448FFF79CFE6348FFF789FE634876
:102EC000FFF796FE6248FFF783FE6248FFF790FE29
:102ED0006148FFF77DFE6148FFF78AFE6048FFF713
:102EE00077FE6048FFF784FE5F48FFF771FE5F489A
:102EF000FFF77EFE5E48FFF76BFE5E48FFF778FE49
:102F00004948FFF775FE5C4A00231370019301994D
:102F10004E1C01960026B30054F8260000285DD010
:102F20000093FFF7EDFD5548FFF752FE0198FFF7BC
:102F300007FE01365248FFF74BFE3046FFF700FE12
:102F40005048FFF745FE009AA3581868FFF740FE67
:102F50004D48FFF74DFEC820FEF70AFB0099645864
:102F6000C5F800A06368002089F80000C8F80000D8
:102F7000C8F80400C8F80800C8F80C00C8F8100029
:102F800003B19847E0688047A36803B19847FFF70B
:102F9000E7FE99F80040002C37D03C48FFF718FEB8
:102FA0003B4B1868FFF7CCFD3A48FFF711FE296844
:102FB000514509D9384C386814F8011B02689368E8
:102FC00098472A68A242F6D83448FFF711FE5BF80A
:102FD000044C54F82600B3000028A1D15BF8044B40
:102FE000002C94D1FFF78CFD0F48FFF701FE2C4811
:102FF000FFF7EEFD204A13786BB92A48FFF7F8FD7A
:103000001D48007803B0BDE8F08F2748FFF7F0FDBA
:103010005BF8044CDDE72548FFF7EAFDF0E700BF69
:103020006011002040B10008C4C100083011002028
:1030300010AF00082CAF000830AF000844AF000804
:103040004CAF000860AF000878AF00088CAF0008F4
:1030500098AF0008ACAF0008B8AF0008CCAF0008CC
:10306000D8AF0008ECAF000804B0000818B00008A2
:103070004CB0000860B000083411002068B00008AF
:1030800078B000087CB0000880B0000884B0000868
:10309000281100209CB0000864110020A0B0000896
:1030A000B8B00008B0B00008A4B00008C8B000086C
:1030B000D4B000082C1100204C110020AFF3008088
:1030C00070B51C4CFFF79CFEE5686420FEF750FAD3
:1030D000012005F1640105F16502FFF701FE00B171
:1030E00070BDE5686420FEF743FA022005F1640133
:1030F00005F16502FFF7F4FD0028F1D1E5684FF412
:103100007A70FEF735FA05F57A7103204A1CFFF74D
:10311000E7FD0028E4D1E46804F164052846FEF7E1
:1031200037FA0420294604F16502BDE87040FFF734
:10313000D7BD00BF400A0020AFF30080AFF300808E
:10314000F8B5524EB3699C68651C2846FEF7D8F95D
:10315000021B514241EB020107460120FFF768FDC7
:1031600000B1F8BDB0698168C1EB050E0220DEF147
:10317000000C4CEB0E01FFF75BFD0028F1D1384647
:10318000FEF7BEF92B1A5A4242EB03010320FFF768
:103190004FFD0028E5D1B0698168C4EB010E042021
:1031A000DEF1000C4CEB0E01FFF742FD0028D8D1F8
:1031B000202383F31188B36999688A1C9A600346B7
:1031C00083F31188B769B968A71CCA1B052053424D
:1031D00043EB0201FFF72CFD0028C2D12846FEF781
:1031E0008FF9001BD0F1000C4CEB00010620FFF71B
:1031F0001FFD0028B5D1B1698B68FA1A0720D2F1FA
:10320000000E4EEB0201FFF713FD0028A9D1B069B3
:10321000026CC2EB050E0820DEF1000C4CEB0E0137
:10322000FFF706FD00289CD1E71C3846FEF768F939
:10323000291A4B4243EB01010920FFF7F9FC002852
:103240008FD1B3699A68C2EB070E0A30DEF1000C29
:103250004CEB0E01FFF7ECFC002882D1B3691A6C2D
:10326000C2EB070C0B30DCF1000141EB0C01FFF766
:10327000DFFC00287FF475AF202383F31188B16948
:1032800003468C600C6483F311886AE7500A0020BF
:10329000F0B52E4F2E4EB8692E4D81682E4A7068BB
:1032A0002E4C83B02B4600920A1F4FF4A871FEF7F4
:1032B0000FF9BB6931689A68DFF8ACE06060053AE5
:1032C0002B4608464FF4A871CDF800E0FEF700F950
:1032D000BB6931699A68DFF894C02060013A2B46D7
:1032E00008464FF4A871CDF800C0FEF7F1F8BB69AD
:1032F000F1689A68DFF878E020612B460846023AC8
:103300004FF4A871CDF800E0FEF7E2F82023E0606A
:1033100083F31188BB69B0689A682B46104D4FF44F
:10332000A871033A0095FEF7A3F8A060002383F389
:103330001188A068FEF7FCF8FFF712FD094901208B
:1033400003B0BDE8F040FFF78BBC00BF500A00207F
:10335000F0AE00086134000834C000084C110020B1
:1033600068B100086CB1000870B1000860B10008D5
:1033700064B10008AFF30080AFF30080AFF30080CA
:10338000F0B52B4F2B4DB8692B4E82682B4B306814
:103390002B4C83B0053A00934FF4A8712B46FEF7EF
:1033A00097F8B969D6F804C08B68DFF8A0E0206010
:1033B0001A1F4FF4A8712B466046CDF800E0FEF7C7
:1033C00087F8BA69D6F808C09368DFF884E06060CF
:1033D000DA1E4FF4A8712B466046CDF800E0FEF7E8
:1033E00077F8B969D6F80CC08A68DFF868E0A060A1
:1033F000023A60462B464FF4A871CDF800E0FEF784
:1034000067F8BB6936699A68E0602B460D4D4FF44A
:10341000A871013A30460095FEF75AF82061FFF78F
:103420009FFC0949012003B0BDE8F040FFF718BC3C
:10343000500A002061340008F0AE000870B10008A6
:103440004C11002060B100086CB1000834C00008C5
:1034500068B1000864B10008AFF30080AFF30080EA
:1034600008B50078FFF7D4FB002008BDAFF300805B
:1034700001480021FEF7B4B904080020AFF3008032
:1034800001480021FEF7ACB904080020AFF300802A
:1034900001480021FEF7A4B904080020AFF3008022
:1034A00000B587B0002103A8FEF79AF9002103A810
:1034B000FEF7D6F9059901200029CCBF0021012192
:1034C000FFF7B6FB08B107B000BD32488369324848
:1034D0009A680068314B03A9013A00914FF4A87132
:1034E000FDF7F6FF2E4B186003A8FEF7E9F90599E2
:1034F00002200029CCBF00210121FFF799FB002801
:10350000E1D1202383F31188059A002A3EDDFDF7DF
:103510006FFF002383F31188059903209942D4BFDC
:1035200000210121FFF784FB0028CCD10599A1F1EE
:10353000010E0420DEF1000C4CEB0E01FFF778FBCE
:103540000028C0D1202383F31188059B002B19DDAF
:10355000FDF74EFF002383F311880599032099425C
:10356000D4BF00210121FFF763FB0028ABD10599EF
:10357000A1F1010C0520DCF1000242EB0C01FFF788
:1035800057FBA0E703A8FEF7FBF9E1E703A8FEF766
:10359000F7F9BCE7500A0020F0AE0008B13500088A
:1035A0004C110020AFF30080AFF30080AFF3008038
:1035B00008B5202383F311888368002B06DDFDF70F
:1035C00017FF002383F31188184608BDFEF7D8F9CA
:1035D000FDF70EFF002383F31188184608BD00BFD6
:1035E00030B5244924488C69244BA5680068244CD4
:1035F00083B06A1C4FF4A87100250095FDF768FFA1
:10360000204B214618602046FEF71AFA2268C4EBC8
:10361000020E0120DEF1000141EB0E01FFF708FB75
:1036200008B103B030BDA268C5EB020E0220DEF186
:10363000000C4CEB0E01FFF7FBFA0028F1D12146FC
:103640002046FEF7FDF92268A31A0320594241EBF8
:103650000301FFF7EDFA0028E3D1A168C5EB010CE7
:103660000420DCF1000E4EEB0C0103B0BDE830404D
:10367000FFF7DEBA500A0020F0AE000891360008CD
:10368000040800204C110020AFF30080AFF300804D
:1036900010B5044C2046FEF713F92046FEF750F90A
:1036A000002010BD04080020AFF30080AFF30080BD
:1036B00010B504460348FEF703F92078FFF7A8FA8F
:1036C000002010BD04080020AFF30080AFF300809D
:1036D000F0B5A14C002183B02046FEF721F9A0F1FE
:1036E000FF30414241EB00010120FFF7A1FA08B190
:1036F00003B0F0BD21680A1B0220534243EB0201D4
:10370000FFF796FA0028F3D1A3680320D3F1010153
:1037100038BF0021FFF78CFA0028E9D18F4B904E7B
:103720009969904B8A6800908F48013A4FF4A871CC
:103730000068FDF7CDFE4FF4FA7130602046FEF7C9
:10374000EFF80646FFF70CFB0420D6F1010138BF65
:103750000021FFF76DFA0028CAD12268C2EB040EDF
:103760000520DEF1000C4CEB0E01FFF761FA00289A
:10377000BED1A1680620D1F1010138BF0021FFF7B9
:1037800057FA0028B4D1794FFFF73AFB4120FF6880
:10379000FFF73EFA4FF4FA712046FEF7C1F8A0F1A8
:1037A000FF33584240EB03010720FFF741FA00289E
:1037B0009ED12268C2EB040E0820DEF1000C4CEB17
:1037C0000E01FFF735FA002892D1A1680920D1F146
:1037D000010138BF0021FFF72BFA002888D14220D1
:1037E000FFF716FA4FF4FA712046FEF799F8A0F1A8
:1037F000FF33584240EB03010720FFF719FA002876
:103800007FF476AF2268C2EB040E0820DEF1000CD4
:103810004CEB0E01FFF70CFA00287FF469AFA168AA
:103820000920D1F1010138BF0021FFF701FA00287A
:103830007FF45EAF4320FFF7EBF94FF4FA712046B7
:10384000FEF76EF8A0F1FF33584240EB030107206A
:10385000FFF7EEF900287FF44BAF2268C2EB040EAD
:103860000820DEF1000C4CEB0E01FFF7E1F9002817
:103870007FF43EAFA1680920D1F1010138BF0021DA
:10388000FFF7D6F900287FF433AF4420FFF7C0F9E3
:103890004FF4FA712046FEF743F8A0F1FF3043429F
:1038A00043EB00010720FFF7C3F900287FF420AFA6
:1038B0002268C2EB040E0820DEF1000C4CEB0E0176
:1038C000FFF7B6F900287FF413AFA1680920D1F102
:1038D000010138BF0021FFF7ABF900287FF408AFE2
:1038E0004520FFF795F94FF4FA712046FEF718F8D6
:1038F000A0F1FF33584240EB03010720FFF798F98E
:1039000000287FF4F5AE2268C2EB040C0820DCF13D
:10391000000E4EEB0C01FFF78BF900287FF4E8AEA8
:10392000A1680920D1F1010138BF0021FFF780F91A
:1039300000287FF4DDAE0A200D49FFF791F9002839
:103940007FF4D6AE07F51C62111D0B20093203B0BF
:10395000BDE8F040FFF7C4B904080020500A002079
:103960004C11002081390008F0AE0008400A002008
:103970006CB10008AFF30080AFF30080AFF30080BC
:1039800008B53220FDF7F4FD202383F311880548A4
:10399000FDF7F6FFFDF72CFD002383F31188184691
:1039A00008BD00BF04080020AFF30080AFF3008023
:1039B0002DE9F043444E454CB769D4F80090BD68FA
:1039C000434F444B83B06A1D4FF4A871484600979B
:1039D000FDF77EFD404DB169D4F804C08B682860C6
:1039E0003E485A1C4FF4A8713A4B00906046FDF7D0
:1039F0006FFDB269D4F80880936868603848DA1CB3
:103A00004FF4A871334B00904046FDF761FDB1695A
:103A1000D4F80CE08A68A86032482E4B00904FF42E
:103A2000A87170460432FDF753FDB36924699A68A2
:103A3000E86020462C4C274B00944FF4A8710232CA
:103A4000FDF746FD294C28612046FDF779FF204609
:103A5000FDF776FF2046FDF773FF2046FDF770FF68
:103A60002046FDF76DFFFFF77BF901202049FFF7A6
:103A7000F7F8804610B103B0BDE8F083B069154B8C
:103A80008268009748464FF4A8710532FDF720FD83
:103A90002023286083F3118802212046FDF780FF50
:103AA000FDF7A6FC434683F31188FFF759F9A36895
:103AB000A3F1010C0220DCF1000242EB0C0103B087
:103AC000BDE8F043FFF7B4B8500A0020F0AE00089C
:103AD00060B10008B13600084C11002064B1000844
:103AE00068B1000834C0000870B100080408002064
:103AF0006CB10008AFF30080AFF30080AFF300803B
:103B0000F0B51B491B4E8B691B4A9D6830681B4BE7
:103B10001B4C83B04FF4A87100926A1CFDF7D8FCCF
:103B2000776820601748184B0090AA1C4FF4A871C2
:103B30003846FDF7CDFCB668144B6060EA1C144DA6
:103B40004FF4A87130460095FDF7C2FC114DA060FE
:103B50002846FEF7DDF82846FEF7DAF8FFF700F909
:103B60000D49012003B0BDE8F040FFF779B800BF70
:103B7000500A0020F0AE000860B10008113C0008B7
:103B80004C11002068B10008E13B0008A13B00088F
:103B900064B1000830080020F0B20008AFF30080E4
:103BA00010B504460448FDF7F3FF2078FFF730F81E
:103BB000FEF716F8002010BD20080020AFF30080AB
:103BC00010B504460448FDF7E3FF2078FFF720F81E
:103BD000FEF706F8002010BD10080020AFF30080AB
:103BE00010B504460648FDF7D3FF0648FEF708F96E
:103BF0002078FFF70DF8FDF7F3FF002010BD00BFA0
:103C00001008002030080020AFF30080AFF30080E0
:103C100010B504460948FDF7BBFF0948FDF7B8FF9A
:103C20004FF0FF310748FEF72BF92078FEF7F0FF41
:103C3000FDF7D6FFFDF7D4FF002010BD20080020BF
:103C40001008002030080020AFF30080AFF30080A0
:103C500010B50548FEF754F80448FDF729FF04485D
:103C6000BDE81040FDF724BF3008002010080020F8
:103C700020080020AFF30080AFF30080AFF3008096
:103C800010B50448FEF73CF80348BDE81040FDF7C6
:103C90000FBF00BF3008002010080020AFF30080E5
:103CA00010B50448FEF72CF80348BDE81040FDF7B6
:103CB000FFBE00BF3008002010080020AFF30080D6
:103CC0000148FDF7F5BE00BF10080020AFF30080EB
:103CD00010B50448FDF7ECFE0348BDE81040FDF7C1
:103CE000E7BE00BF1008002020080020AFF30080CE
:103CF00010B50448FDF7DCFE0348BDE81040FDF7B1
:103D0000D7BE00BF1008002020080020AFF30080BD
:103D10000148FDF7CDBE00BF10080020AFF30080C2
:103D20000148FDF7C5BE00BF10080020AFF30080BA
:103D3000F0B52949294D8869294F8668294B38688B
:103D4000294C83B0721C00934FF4A8712B46FDF7E9
:103D5000BFFBD7F804C0DFF8A0E02060B21C2B4600
:103D60004FF4A8716046CDF800E0FDF7B1FBD7F83D
:103D700008C0DFF888E06060F21C2B464FF4A871A1
:103D80006046CDF800E0FDF7A3FBD7F80CC0DFF8E4
:103D900070E0A060321D60462B464FF4A871CDF84C
:103DA00000E0FDF795FB3F69E0602B460F4D4FF4B7
:103DB000A871721D38460095FDF78AFB20610C48FA
:103DC000FDF7E6FFFEF7CCFF0A49012003B0BDE88E
:103DD000F040FEF745BF00BF500A0020E13B00085D
:103DE000F0AE000870B100084C11002060B100086E
:103DF000300800206CB1000834C0000868B1000829
:103E000064B10008AFF30080AFF30080AFF300802F
:103E1000F0B5324E324FB069324B8568324E386859
:103E2000324C83B06A1C00934FF4A8713346FDF7FF
:103E30004FFB7968DFF8C4E02060AA1C33460846CF
:103E40004FF4A871CDF800E0FDF742FBB968DFF848
:103E5000B0C06060EA1C334608464FF4A871CDF844
:103E600000C0FDF735FBF968DFF898E0A0602A1D77
:103E7000334608464FF4A871CDF800E0FDF728FB63
:103E80003A69E06010466A1D194D33464FF4A87137
:103E90000095FDF71DFB2023206183F31188154C4D
:103EA0002046FDF74DFF2046FDF74AFF2046FDF76F
:103EB00047FF2046FDF744FF2046FDF741FFFDF791
:103EC00097FA002383F31188FEF74AFF0A4901207D
:103ED00003B0BDE8F040FEF7C3BE00BF500A0020AB
:103EE000F0AE000870B10008E13B00084C11002062
:103EF00060B10008300800206CB1000834C0000830
:103F000068B1000864B10008AFF30080AFF300802F
:103F1000F0B52C4F2C48BC692C4EA4682C4D83B0B6
:103F2000FDF736FE2B4930682B4B0091621C4FF495
:103F3000A871FDF7CDFAD6F804E028602748264B93
:103F40000090A21C70464FF4A871FDF7C1FAD6F894
:103F500008C068602248204B0090E21C60464FF485
:103F6000A871FDF7B5FAD6F80CE0A8601D481A4B09
:103F70000090221D70464FF4A871FDF7A9FA36692A
:103F8000E8603046184E144B0096621D4FF4A8713D
:103F9000FDF79EFA2861FDF723FEFEF7E1FEB86902
:103FA0008268131B0120594241EB0301FEF740FEDA
:103FB00008B103B0F0BD0D49022003B0BDE8F040E8
:103FC000FEF74EBE500A002010080020F0AE000898
:103FD0004C11002070B10008C13B000834C000083B
:103FE00068B1000864B1000860B100086CB1000855
:103FF0002DE9F0412F4D304CAB6920469E68FDF70E
:10400000D7FD01460120FEF713FE08B1BDE8F0819F
:104010002046FDF7CDFDD0F1010138BF002102207F
:10402000FEF706FE07460028F0D1202383F311880F
:10403000FDF70EFE3B4683F311882268C4EB020CA9
:104040000320DCF1000141EB0C01FEF7F1FD00283B
:10405000DCD1A3680420D3F1010138BF0021FEF7B1
:10406000E7FD0028D2D1A8698268C6EB020E0520C0
:10407000DEF1000141EB0E01FEF7DAFD0028C5D1AB
:104080002046FDF785FDFDF70BFE2168631A06202B
:10409000D3F1000C4CEB0301FEF7CAFD0028B5D1AB
:1040A000A2680720D2F1010138BF0021BDE8F0412C
:1040B000FEF7BEBD500A002010080020AFF30080BC
:1040C0002DE9F047924D934FAC69D7F800A0A46852
:1040D000914E924B82B004F101084FF4A871424610
:1040E00050460096FDF7F4F98D4ED7F804903060F5
:1040F0008C488D4B0090A71C4FF4A8713A46484657
:10410000FDF7E6F970608948FDF742FDA86983680C
:104110001A1B0120514241EB0201FEF789FD10B14B
:1041200002B0BDE8F0876420FDF722FAAB699A6817
:10413000C8EB02010220D1F1000C4CEB0101FEF7AB
:1041400077FD0028ECD17A48FDF722FDA869826846
:10415000C8EB020C0320DCF1000141EB0C01FEF77F
:1041600067FD0028DCD16420FDF702FAAA69916896
:10417000C7EB010E0420DEF1000343EB0E01FEF756
:1041800057FD0028CCD1FDF72BFDA8698168C8EB4D
:1041900001030520D3F1000C4CEB0301FEF748FDB1
:1041A0000028BDD16420FDF7E3F9A9698B68C8EB4D
:1041B000030C0620DCF1000242EB0C01FEF738FD97
:1041C0000028ADD1FDF76CFDA8698368C4EB030C32
:1041D0000720DCF1000242EB0C01FEF729FD00286C
:1041E0009ED1FEF7BDFD53494C4B009142464FF422
:1041F000A8715046FDF76CF930604F484A4B00906B
:104200004FF4A8713A464846FDF762F97060474896
:10421000FDF7BEFCAB699A68C4EB020E0820DEF124
:10422000000141EB0E01FEF703FD00287FF478AF9B
:104230006430FDF79DF9A8698368C8EB0302092083
:10424000D2F1000C4CEB0201FEF7F2FC00287FF4E7
:1042500067AF3748FDF79CFCAB699A68C8EB020C66
:104260000A20DCF1000141EB0C01FEF7E1FC002823
:104270007FF456AF6430FDF77BF9A8698268D11BE3
:104280000B204E4246EB0101FEF7D2FC0646002809
:104290007FF446AF202383F31188FDF7D9FCFDF7A7
:1042A000A7F8334683F31188A9698B68C8EB030E1E
:1042B0000C20DEF1000C4CEB0E01FEF7B9FC0028DF
:1042C0007FF42EAF6430FDF753F9A8698368C8EB1B
:1042D00003020D20D2F1000C4CEB0201FEF7A8FC0A
:1042E00000287FF41DAFFDF7DBFCAB699A68C4EBD7
:1042F000020C0E20DCF1000141EB0C01FEF798FCF2
:1043000000287FF40DAF02B0BDE8F047FEF728BDEE
:10431000500A0020F0AE000864B1000861430008B4
:104320004C11002060B10008414300082008002023
:104330001008002034C0000868B10008AFF3008006
:1043400008B59620FDF714F90348FDF721FCFDF7A9
:1043500047FC002008BD00BF10080020AFF300801C
:1043600008B53220FDF704F90348FDF711FCFDF70D
:1043700037FC002008BD00BF20080020AFF30080FC
:104380002DE9F0412D4F2E4E2E4D2F4C82B0FEF7D1
:1043900037FDBB69D5F80C809A6830682B4B002537
:1043A0004FF4A871053A0095FDF792F8B969D6F86F
:1043B00004E08B6820601A1F70464FF4A871244BEC
:1043C0000095FDF785F8BA69D6F808C09368606073
:1043D000DA1E60464FF4A8711E4B0095FDF778F881
:1043E000B969D6F80CE08A681B4BA0604FF4A8713D
:1043F0007046023A0095FDF76BF8BB6936699A681A
:10440000E0604FF4A871013A144B00953046FDF777
:104410005FF82061FEF7A4FC01201149FEF720FCA3
:1044200010B102B0BDE8F081022008F16E0108F180
:10443000730202B0BDE8F041FEF752BC500A002002
:10444000F0AE0008400A00204C110020E1450008B1
:10445000A1450008714500085145000821450008A4
:104460006CB10008AFF30080AFF30080AFF30080C1
:104470002DE9F041204F214E214D224C82B0FEF714
:10448000BFFCBB69D5F80C809A6830681E4B0025CC
:104490004FF4A871013A0095FDF71AF8B969D6F8FA
:1044A00004E08A68194B20604FF4A8717046023A04
:1044B0000095FDF70DF8BB69B6689A6860604FF427
:1044C000A871033A124B00953046FDF701F8A06041
:1044D000FEF746FC01200F49FEF7C2FB10B102B007
:1044E000BDE8F081022008F1640108F1690202B020
:1044F000BDE8F041FEF7F4BB500A0020F0AE000822
:10450000400A00204C1100205146000831460008A6
:1045100001460008F0B20008AFF30080AFF300805E
:1045200008B53220FDF724F80648FDF731FB0A20D4
:10453000FEF73EFCFDF754FB4120FEF769FB00202F
:1045400008BD00BF20080020AFF30080AFF300805B
:1045500008B52820FDF70CF81420FEF729FC4220AE
:10456000FEF756FB002008BDAFF30080AFF30080DC
:1045700008B51420FCF7FCFF0648FDF709FB0A20EC
:10458000FEF716FCFDF72CFB4320FEF741FB002055
:1045900008BD00BF20080020AFF30080AFF300800B
:1045A00008B50A20FCF7E4FF0B48FDF7F1FA1420E8
:1045B000FEF7FEFB0948FDF7EBFA0A20FEF7F8FBD1
:1045C000FDF70EFB0A20FEF7F3FBFDF709FB442085
:1045D000FEF71EFB002008BD200800201008002068
:1045E00008B50648FDF7D4FA1E20FEF7E1FBFDF7FB
:1045F000F7FA4520FEF70CFB002008BD100800204C
:1046000008B50848FDF7C4FA2820FEF7D1FBFDF7EE
:10461000E7FA0A20FEF7CCFB4320FEF7F9FA002068
:1046200008BD00BF10080020AFF30080AFF300808A
:1046300008B51420FCF79CFF2820FEF7B9FB4220A8
:10464000FEF7E6FA002008BDAFF30080AFF300806C
:1046500008B52820FCF78CFF0648FDF799FA0A20D8
:10466000FEF7A6FBFDF7BCFA4120FEF7D1FA0020C9
:1046700008BD00BF10080020AFF30080AFF300803A
:1046800010B5184C1848A169184B8A68006882B0A8
:10469000013200914FF4A871FCF71AFF144B186017
:1046A000FDF7CEFD446B2146FDF7EAFDE0B2FEF7D3
:1046B000AFFAFDF7C5FD446B2146FDF7E1FDE0B221
:1046C000FEF7A6FAFDF7BCFD446B2146FDF7D8FDC9
:1046D000E0B2FEF79DFA0749012002B0BDE81040A4
:1046E000FEF7BEBA500A0020F0AE000801470008ED
:1046F0004C110020F0B20008AFF30080AFF300804F
:1047000010B541210446FDF773FD42212046FDF717
:104710006FFD20464321FDF76BFD002010BD00BF5B
:10472000F0B5BB4C626AA2F105030120594241EB8E
:10473000030183B0FEF77CFA002845D142212046D0
:104740004FF0FF32FDF704FED0F1010138BF002128
:104750000220FEF76DFAB8BB432120464FF0FF322E
:10476000FDF7F6FDD0F1010138BF00210220FEF770
:104770005FFA48BB442120464FF0FF32FDF7E8FDC9
:10478000D0F1010138BF00210220FEF751FAD8B95B
:10479000452120464FF0FF32FDF7DAFDD0F101014F
:1047A00038BF00210220FEF743FA68B941212046B4
:1047B0004FF0FF32FDF714FED0F1010138BF0021A8
:1047C0000320FEF735FA08B103B0F0BD58210122ED
:1047D0002046FDF7BDFDA0F1FF3CDCF1000040EB01
:1047E0000C010420FEF724FA05460028ECD1202312
:1047F00083F3118858212046FDF7BAFD2B46024667
:1048000083F31188A2F1FF3E0520DEF1000141EBA8
:104810000E01FEF70DFA0028D6D1582101222046BC
:10482000FDF7DEFDA0F1FF335D4245EB03010620FD
:10483000FEF7FEF905460028C6D1202383F3118830
:1048400058212046FDF7DCFD2B46024683F31188F4
:10485000A2F1FF310720D1F1000C4CEB0101FEF772
:10486000E7F90028B0D1202383F31188676A082074
:10487000D7F1010138BF0021FEF7DAF9074618B178
:10488000002383F311889FE7034683F311882023D5
:1048900083F31188A369A3F105050920D5F1000E62
:1048A0004EEB0501FEF7C4F9054618B13B4683F30C
:1048B000118889E7034683F31188202383F3118845
:1048C000A368E268D11A0A20D1F1000C4CEB010177
:1048D000FEF7AEF90346002840F0968083F3118876
:1048E00006464B4D01A928464FF0FF32FDF7C0FDAB
:1048F000D0F1010138BF00210B20FEF799F9002803
:104900007FF462AF9DF804000136FEF781F9052EB1
:10491000E7D10C203F49FEF7A3F900287FF454AFFC
:10492000472128464FF0FF32FDF712FDD0F101017B
:1049300038BF00210D20FEF77BF900287FF444AF3B
:1049400001A928464FF0FF32FDF792FDD0F1010199
:1049500038BF00210E20FEF76BF900287FF434AF3A
:104960002968AA68C2EB010C0F30DCF1000E4EEB97
:104970000C01FEF75DF900287FF426AF2968EA688C
:104980008B1A1030D3F1000E4EEB0301FEF750F9F5
:1049900000287FF419AF012201A92846FDF768FD20
:1049A000A0F1FF30464246EB00011120FEF740F92E
:1049B000064600287FF408AF202383F31188284699
:1049C00001A9FDF765FD3346024683F31188A2F184
:1049D000FF3E1220DEF1000C4CEB0E01FEF728F931
:1049E00000287FF4F1AE202383F311886A6AA2F1D4
:1049F000050113304B4243EB0101FEF719F958B1A1
:104A0000002383F31188DFE62B4683F31188DBE66E
:104A1000380800206CB10008002383F3118820338C
:104A200083F31188A569C34C1420D5F1010138BF67
:104A30000021FEF7FDF8054618B1002383F3118825
:104A4000C2E6034683F31188202383F31188E168CB
:104A5000A368C3EB010E1520DEF1000C4CEB0E0138
:104A6000FEF7E6F8034618B12B4683F31188ABE650
:104A700083F31188202383F3118841212046FDF719
:104A800077FCD0F1010138BF00211620FEF7D0F8E5
:104A900000287FF499AE42212046FDF769FCD0F151
:104AA000010138BF00211720FEF7C2F800287FF46B
:104AB0008BAE43212046FDF75BFCD0F1010138BFEE
:104AC00000211820FEF7B4F800287FF47DAE4421C1
:104AD0002046FDF74DFCD0F1010138BF002119201F
:104AE000FEF7A6F8054600287FF46EAE2046452165
:104AF000FDF73EFC2B46024683F311881A20D2F1C3
:104B0000010138BF0021FEF793F800287FF45CAE66
:104B1000E168A368C3EB010C1B30DCF1000E4EEB27
:104B20000C01FEF785F800287FF44EAE05352023F2
:104B300083F311887F4C01A92046FDF7A9FC0023CF
:104B4000844683F31188C3EB0C0E1C20DEF10002B7
:104B500042EB0E01FEF76CF800287FF435AE9DF8AD
:104B60000400FEF755F8013DE1D11D207249FEF722
:104B700077F800287FF428AE202383F31188626A37
:104B8000A2F105031E30594241EB0301FEF750F834
:104B900018B12B4683F3118816E62B4683F3118850
:104BA000202383F31188A1691F20D1F1010138BFAF
:104BB0000021FEF73DF818B12B4683F3118803E678
:104BC0002B4683F31188E268A368C3EB020C202014
:104BD000DCF1000E4EEB0C01FEF72AF800287FF402
:104BE000F3AD202383F3118845212046FDF708FC0F
:104BF000D0F1010138BF00212120FEF719F800286B
:104C00007FF4E2AD44212046FDF7FAFBD0F101012B
:104C100038BF00212220FEF70BF800287FF4D4AD26
:104C200043212046FDF7ECFBD0F1010138BF002104
:104C30002320FDF7FDFF00287FF4C6AD422120466A
:104C4000FDF7DEFBD0F1010138BF00212420FDF784
:104C5000EFFF00287FF4B8AD364C41212046FDF728
:104C6000CFFB0023024683F31188C3EB020C2520FF
:104C7000DCF1000141EB0C01FDF7DAFF00287FF4C5
:104C8000A3ADE168A268C2EB010E2630DEF100039D
:104C900043EB0E01FDF7CCFF00287FF495AD052412
:104CA000202383F31188234D01A92846FDF7F0FB4B
:104CB0000023014683F31188CB1A2720D3F1000C7F
:104CC0004CEB0301FDF7B4FF00287FF47DAD9DF8A8
:104CD0000400FDF79DFF013CE2D128201649FDF7B5
:104CE000BFFF00287FF470AD202383F311886B6A27
:104CF000A3F105022930D2F1000E4EEB0201FDF7BF
:104D000097FF18B1234683F311885DE5234683F3AB
:104D10001188202383F31188A9692A20D1F1010188
:104D200038BF0021FDF784FF40B1234683F311888B
:104D30004AE500BF380800206CB10008234683F321
:104D40001188EA68AB68C3EB020C2B20DCF1000E83
:104D50004EEB0C01FDF76CFF00287FF435AD2846C3
:104D6000FDF7B6FA202383F311886A6AA2F1050ED3
:104D70002C20DEF1000141EB0E01FDF759FF18B1C7
:104D8000234683F311881FE5234683F311882023EC
:104D900083F31188AB692D20D3F1010138BF0021C5
:104DA000FDF746FF18B1234683F311880CE523462F
:104DB00083F31188202383F311882A68AB68D11A02
:104DC0002E20D1F1000C4CEB0101FDF731FF18B1A1
:104DD000234683F31188F7E4234683F311882023C5
:104DE00083F311882968EA68C2EB010C2F20DCF1FB
:104DF000000E4EEB0C01FDF71BFF002383F311881F
:104E0000E2E400BFAFF30080AFF30080AFF30080B7
:104E1000024803490522FDF743BA00BF38080020C5
:104E2000980A0020AFF30080AFF30080AFF300805A
:104E3000002110B54FF0FF30FDF75AF9D0F1010114
:104E400038BF00210120FDF7F3FE00B110BD01467F
:104E50004FF0FF30FDF77CF9D0F1010138BF0021A0
:104E60000220FDF7E5FE0028F0D101464FF0FF30AB
:104E7000FDF796F9D0F1010138BF00210320FDF7BD
:104E8000D7FE0028E2D10A214FF0FF30FDF730F9BC
:104E9000D0F1010138BF00210420FDF7C9FE002830
:104EA000D4D10A214FF0FF30FDF752F9D0F10101C2
:104EB00038BF00210520FDF7BBFE0028C6D10A211E
:104EC0004FF0FF30FDF76CF9D0F1010138BF002140
:104ED0000620BDE81040FDF7ABBE00BFAFF3008079
:104EE0004FF0FF30FDF70CB8AFF30080AFF3008058
:104EF0004FF0FF30FDF704B8AFF30080AFF3008050
:104F00004FF0FF30FCF7FCBFAFF30080AFF3008041
:104F10002DE9F04707208AB0FDF702F84FF0FF3087
:104F2000FDF786F8A0F1010EDEF1000141EB0E0164
:104F30000120FDF77DFE10B10AB0BDE8F0874FF00B
:104F4000FF30FDF775F8A0F10200424242EB00018C
:104F50000220FDF76DFE0028EED14FF0FF30FDF787
:104F600067F8A0F1040CDCF1000343EB0C01032013
:104F7000FDF75EFE0028DFD14FF0FF30FCF7C0FFE9
:104F8000D0F1010138BF00210420FDF751FE0028B7
:104F9000D2D1784F784C794E794DFDF731FFB96910
:104FA000D4F800808A68F468764B0091013A4FF497
:104FB000A8714046FCF78CFA28604FF0FF30FDF7EF
:104FC00037F804F1320A81465146052004F13702D0
:104FD000FDF786FE0028AFD1A9F101030620D3F129
:104FE000000E4EEB0301FDF723FE0028A4D14FF085
:104FF000FF30FCF785FFD0F1010138BF0021072009
:10500000FDF716FE002897D1FDF7AAFE0520FCF754
:1050100087FF4FF0FF30FDF72BF8A0F1050CDCF116
:10502000000040EB0C010820FDF702FE002883D1B0
:105030000138FCF765FFD0F1010138BF00210920DC
:10504000FDF7F6FD00287FF477AFFDF7D9FEB969CB
:10505000F4688A684B4B0091013A4FF4A8714046BE
:10506000FCF736FA28604FF0FF30FDF701F804F145
:10507000320A814651460A2004F13702FDF730FE1C
:1050800000287FF459AFA9F1010E0B30DEF10003C7
:1050900043EB0E01FDF7CCFD00287FF44DAF013846
:1050A000FCF72EFFD0F1010138BF00210C20FDF7E5
:1050B000BFFD00287FF440AF334CDFF8D890FDF7F8
:1050C0004FFE204606A901222460C9F80090FCF793
:1050D000E7FE02A904224846FCF7E2FEFDF790FE37
:1050E000BA692A489768F668294B00907A1E4FF4EF
:1050F000A8714046FCF7ECF906F13207286005205C
:10510000FCF7D6FF0D20394606F13702FDF7E8FD22
:1051100000287FF411AF0138FCF7F2FED0F1010155
:1051200038BF00210E20FDF783FD00287FF404AF77
:10513000FDF716FE204606A9FCF7CAFE484602A95E
:10514000FCF7C6FE2368191B0F20D1F1000C4CEBB5
:105150000101FDF76DFD00287FF4EEAED9F80010D7
:10516000C9EB01021030D2F1000E4EEB0201FDF747
:105170005FFDE1E6500A0020F0AE0008400A002082
:105180004C110020D15100086008002060B10008D7
:10519000A151000864080020AFF30080AFF3008045
:1051A00008B500210548FCF713FF3220FCF7E0F9B1
:1051B00003480021FCF70CFF002008BD6008002018
:1051C00064080020AFF30080AFF30080AFF30080ED
:1051D00010B504463220FCF7CBF920460121FCF73C
:1051E000CFFE002010BD00BFAFF30080AFF3008002
:1051F00010B51E4C88B00122204604A92460FCF79B
:105200004FFE204669460222FCF74AFE2168012033
:10521000091B18BF0121FDF70BFD08B108B010BD37
:10522000204604A9FCF754FE22680220111B18BF77
:105230000121FDF7FDFC0028F0D120466946FCF76E
:1052400047FE2168C4EB010C0320DCF1000343EBB3
:105250000C01FDF7EDFC0028E0D107210448FCF724
:10526000C7FE04200349FDF7FBFCD7E760080020D8
:1052700050B50008F0B20008AFF30080AFF3008033
:105280004320FDF7C5BC00BFAFF30080AFF3008043
:105290004220FDF7BDBC00BFAFF30080AFF300803C
:1052A0004120FDF7B5BC00BFAFF30080AFF3008035
:1052B00070B582B0FDF7CCFA69460020FDF788FB97
:1052C00010210020FDF7F4FA011E18BF0121044649
:1052D0000120FDF7ADFC054608B102B070BD2046C7
:1052E000FDF72EFB6FF0FF012846FDF7E1FAD0F144
:1052F000010138BF00210220FDF79AFC0028ECD103
:1053000069468348FDF764FB10218148FDF7D0FA18
:10531000102105467E48FDF7CBFA102104467C4853
:10532000FDF7C6FA06462846FDF70AFB2046FDF7BC
:1053300007FB3046FDF704FB01A97548FDF748FB64
:10534000A0F1010EDEF1000141EB0E010320FDF79B
:105350006FFC0028C1D110216D48FDF7A9FA10217A
:1053600004466B48FDF7A4FA102105466848FDF78E
:105370009FFAFDF7E5FA2846FDF7E2FA2046FDF729
:10538000DFFA01A96248FDF723FBA0F101004242C8
:1053900042EB00010420FDF74BFC00289DD11121B8
:1053A0005B48FDF785FA102104465948FDF780FA5D
:1053B00005462046FDF7C4FA01A95548FDF708FB4C
:1053C000A0F1020CDCF1000343EB0C010520FDF71A
:1053D0002FFC002881D110214D48FDF769FA01A961
:1053E00004464B48FDF7F4FA012800F08E8001A92D
:1053F0004748FDF7EDFAA0F10202514241EB0201EC
:105400000620FDF715FC00287FF467AF2846FDF75E
:1054100097FA2046FDF794FA01A93D48FDF7D8FA1E
:10542000A0F10103584240EB03010720FDF700FC07
:1054300000287FF452AF10213548FDF739FA1021CA
:1054400005463348FDF734FA04462846FDF778FA56
:1054500001A92F48FDF7BCFAA0F1020EDEF1000C05
:105460004CEB0E010820FDF7E3FB00287FF435AF7D
:1054700020212748FDF71CFAFDF762FA2046FDF7C8
:105480005FFA01A92248FDF7A3FAA0F101025142F7
:1054900041EB02010920FDF7CBFB00287FF41DAF93
:1054A00001A91B48FDF794FA01991948FDF700FA84
:1054B00001A904461648FDF78BFAD0F1010138BF67
:1054C00000210A20FDF7B4FB00287FF406AF204638
:1054D000FDF736FA01A90E48FDF77AFAA0F10103AB
:1054E000584240EB03010B20FDF7A2FB00287FF49C
:1054F000F4AE0199009AC2EB010E0C30DEF1000C03
:105500004CEB0E01FDF794FBE7E6014678E700BFA0
:1055100078110020AFF30080AFF30080AFF300807C
:10552000024803494FF4D262FDF7B2B97811002066
:10553000980A0020AFF30080AFF30080AFF3008043
:1055400000207047AFF30080AFF30080AFF300801E
:1055500070B5574C5748256805222946FDF760FA73
:105560005448FDF79DFA011E18BF01210120FDF7E7
:105570005FFB002840F08A804E48FDF791FA011E3B
:1055800018BF01210120FDF753FB00287ED14948B7
:10559000FDF786FA011E18BF01210120FDF748FB27
:1055A000002873D14348FDF77BFA011E18BF012183
:1055B0000120FDF73DFB002868D13E48FDF770FA59
:1055C000011E18BF01210120FDF732FB00285DD12B
:1055D0003848FDF765FAD0F1010138BF00210220FB
:1055E000FDF726FB002851D132482946FDF770FA15
:1055F00030486168FDF76CFA2E48A168FDF768FA3B
:105600002C48E168FDF764FA21692A48FDF760FA41
:105610002848FDF745FA011E18BF01210320FDF7B8
:1056200007FB002832D12348FDF73AFA011E18BFC4
:1056300001210320FDF7FCFA40BB1E48FDF730FABC
:10564000011E18BF01210320FDF7F2FAF0B9194835
:10565000FDF726FA011E18BF01210320FDF7E8FA25
:10566000A0B91448FDF71CFA011E18BF0121032040
:10567000FDF7DEFA50B90F48FDF712FAD0F101013B
:1056800038BF00210420FDF7D3FA00B170BD10210E
:10569000094A0848FDF7BCF90648FDF701FAD0F1C0
:1056A000010138BF00210520BDE87040FDF7C0BAF8
:1056B000F0AE00086808002041550008AFF30080F4
:1056C00002484FF4A8710022FDF7A2B96808002033
:1056D00038B50546FCF754F8002403461846AB429B
:1056E00008BF44F00104FCF75BF803460028F5D13D
:1056F000204638BDAFF30080AFF30080AFF30080E9
:1057000010B54D484D4983694D489C684D4B82B05A
:10571000621E00914FF4A871FBF7EAFF04460120D6
:10572000A27FC0EB020CDCF1000141EB0C01FDF7A4
:105730007FFA08B102B010BD2046FBF7A1FFA27F9F
:105740000220C0EB020EDEF1000C4CEB0E01FDF767
:105750006FFA0028EED12046FBF7A2FF94F81EC096
:10576000ACF101030320594241EB0301FDF760FA5C
:105770000028DFD12046FFF7ABFF01460420FDF7EC
:1057800057FA0028D6D12046FFF7A2FF0146052090
:10579000FDF74EFA0028CDD12046FBF781FFA27F0E
:1057A0000620D2F1010138BF0021FDF741FA00289F
:1057B000C0D194F81CE00720DEF1010138BF0021C0
:1057C000FDF736FA0028B5D12046FFF781FF0146E4
:1057D0000820FDF72DFA0028ACD12046FFF778FF0E
:1057E00001460920FDF724FA0028A3D13230FBF747
:1057F000BFFE94F81CC0ACF10E030A20594241EBE5
:105800000301FDF715FA002894D12046FFF760FF49
:1058100001460B20FDF70CFA00288BD12046FFF73C
:1058200057FFD0F1010138BF00210C2002B0BDE8C4
:105830001040FDF7FDB900BF500A002060B100081C
:10584000A811002051580008AFF30080AFF300808A
:1058500008B50078FDF7DCF9002008BDAFF3008043
:10586000024803494FF4D262FDF712B8A811002094
:10587000980A0020AFF30080AFF30080AFF3008000
:10588000024803494FF4D262FDF702B8A811002084
:10589000980A0020AFF30080AFF30080AFF30080E0
:1058A000444870B5444E8369316844489D68444C0F
:1058B000FDF70EF941487168FDF70AF93F48B168F4
:1058C000FDF706F93D48F168FDF702F9691E3D4A0A
:1058D0003D4B3A48FBF72CFFA91E2060394A3B4B51
:1058E0003648FBF725FFE91E6060364A384B3348DF
:1058F000FBF71EFF291FA060324A364B2F48FBF7EB
:1059000017FF691FE0602F4A2C48334BFBF710FF4D
:105910002168206149B1616839B1A16829B1E168A4
:1059200019B1D0F1010138BF00210120FDF780F944
:1059300000B170BDFDF714FA02202849FDF790F977
:105940000028F6D11D48FDF7ABF8011E18BF012154
:105950000320FDF76DF90028EBD11848FDF7A0F8FA
:10596000011E18BF01210320FDF762F90028E0D1D4
:105970001248FDF795F8011E18BF01210320FDF71D
:1059800057F90028D5D10D48FDF78AF8011E18BF38
:1059900001210320FDF74CF90028CAD10748FDF783
:1059A0007FF8D0F1010138BF00210420BDE870402C
:1059B000FDF73EB9500A0020F0AE00089811002013
:1059C0004C1100205158000860B1000864B1000873
:1059D00068B1000834C0000870B1000830B6000893
:1059E00002484FF4A8710022FDF712B89811002068
:1059F00070B5364C3648A369364C9D68364E84B037
:105A000002A9FCF7E5FF3549354B00916A1E4FF4BA
:105A1000A8712F48FBF76CFE314B2060AA1E4FF493
:105A2000A8712B480096FBF763FE03A96060284825
:105A3000FCF7CEFF03992648FCF73AFF294A284B8A
:105A400000924FF4A8710646EA1E2148FBF750FE6B
:105A5000A0603046FCF774FF216829B1616819B174
:105A6000A168002928D000210120FDF7E1F808B144
:105A700004B070BDFDF774F902201B49FDF7F0F882
:105A80000028F5D103A91248FCF7A2FFA0F10101FB
:105A9000D1F1000C4CEB01010320FDF7C9F80028FF
:105AA000E6D10399029A8B1A0420D3F1000E4EEB33
:105AB0000301FDF7BDF8DBE7E0680028D4D12269D7
:105AC000D2F1010138BF0021CEE700BF500A00200B
:105AD000A81100204C11002064B1000860B100083A
