:020000040800F2
:1000000000040020B10100088103000881030008FA
:1000100081030008810300088103000881030008B0
:10002000810300088103000881030008B103000870
:10003000810300088103000881030008810400088F
:100040008103000881030008810300088103000880
:100050008103000881030008810300088103000870
:10006000810300088103000881030008F1140008DF
:100070002115000861150008A1150008E115000808
:1000800011160008511600088103000881030008BA
:100090008103000881030008810300088103000830
:1000A0008103000881030008810300088103000820
:1000B0008103000881030008810300088103000810
:1000C0008103000881030008810300088103000800
:1000D00081030008411B0008810300088103000818
:1000E00081030008810300088103000881030008E0
:1000F00081030008810300088103000891160008AD
:1001000081030008810300088103000881030008BF
:1001100081030008810300088103000881030008AF
:10012000D1160008011700084117000881170008C0
:10013000C11700088103000881030008810300083B
:10014000810300088103000881030008810300087F
:10015000F11700083118000871180008A11E0008E6
:10016000810300088103000881030008810300085F
:10017000810300088103000881030008810300084F
:0801800081030008810300085F
:10019000704700BFAFF30080AFF30080AFF3008083
:1001A000FEE700BFAFF30080AFF30080AFF3008045
:1001B00072B6634880F30988022383F31488BFF37F
:1001C0006F8F604A604CA24217D213464FF05531F0
:1001D000D64343F8041BA519A342C5F380050CD2EE
:1001E00025B1196002F10803A34206D21A4642F86B
:1001F000041B5960131DA342F8D3544A824217D2FC
:1002000013464FF05531D54343F8041B441983423C
:10021000C4F380040CD224B1196002F108038342B4
:1002200006D21E4646F8041B5960331D8342F8D39C
:1002300001F096FE464C4749A14222D246480B4661
:10024000024652F8046BCD4343F8046B04EB050CF3
:10025000A342CCF3800514D23DB1166800F1080228
:100260001E6001F10803A3420BD2104650F8045B54
:10027000194641F8045B5668021D5E600B1DA342DF
:10028000F3D3364A3648824217D200211346D4436C
:1002900043F8041B00EB040E8342CEF380040CD21F
:1002A00024B1196002F10803834206D21A4642F8CB
:1002B000041B5960131D8342F8D32A4D2A4EFFF7C1
:1002C00067FFB54219D22C4654F8043BE94377182E
:1002D0009847B442C7F380070FD22FB1236805F1C6
:1002E00008049847B44208D2254655F8042B904795
:1002F00060682C1D8047B442F6D31C4D1C4E01F0A3
:100300007FFEB5421AD22C46EF4354F8043B06EB6D
:10031000070CCCF380079847B4420FD22FB1226864
:1003200005F108049047B44208D2254655F8040B5D
:10033000804761682C1D8847B442F6D3FFF730BF71
:10034000000800200000002000040020000400201D
:100350000008002000080020C82500080008002030
:100360007811002088010008880100088801000831
:1003700088010008AFF30080AFF30080AFF3008086
:10038000FEE700BFAFF30080AFF30080AFF3008063
:1003900072B6FEE7AFF30080AFF30080AFF30080EA
:1003A00000F056F900F02CFC00F072F900DF00BFFD
:1003B000EFF30983203383F30988002383F3118843
:1003C000704700BFAFF30080AFF30080AFF3008051
:1003D0000A4B002210B59A60094A07201021DA6002
:1003E00000F07EF80A204FF4007100F079F80B203D
:1003F0008021BDE8104000F073B800BF00ED00E0C0
:100400000003FA05AFF30080AFF30080AFF3008084
:10041000202383F311881648436813F4006317D030
:10042000EFF30983203B83F3098812494FF0807072
:100430008A69D86192F8230068B108689268816877
:10044000914294BF0022012272B10B4A9A61704717
:1004500083F311887047086892688168914234BFBD
:1004600000220122002AF0D104499961704700BF9F
:1004700000ED00E0340D0020A1030008AC030008EB
:1004800010B500F065F9202383F3118800F020F9FE
:1004900000F086F800F03CF9002383F3118800F0A7
:1004A00077F9BDE81040FFF7B3BF00BFAFF300809E
:1004B0002DE9F04FC1F80CD0D0F80CD0BDE8F08F8A
:1004C00008B500F0E5F8002383F311882846A0471B
:1004D00000F0B6FC08BD00BFAFF30080AFF30080B2
:1004E00000F0030210B4FF23D40013FA04F2A14079
:1004F0008008064C063054F8203023EA020242EA13
:10050000010344F8203010BC704700BF00ED00E04C
:100510000248034A83699A61FEE700BF340D002058
:1005200060200008AFF30080AFF30080AFF30080DD
:1005300030B583B0FFF74CFF00F022FA00F0B8F9B5
:1005400000F086FE00F0CCFE00F072F940210E486B
:1005500000F066FB0D4D0E49012480F82040C1617A
:10056000A86100F05DF8002383F3118862B6AA69E0
:100570001D46084BC021936107482246074B009552
:1005800000F0BEFB03B030BD00080020340D002099
:1005900000040020E0210008500800201105000898
:1005A0002DE9F04100F014F91B4B9B6993F82320CF
:1005B00012B1013A83F82320586A184C421C5A623F
:1005C000E168D4F80080481CA045E06021D0D8F84C
:1005D0000850013DC8F80850DDB92746D8F800108A
:1005E000D8F80C604F60C8F80C50216000F090F80B
:1005F0002B4683F31188D8F81000B047202383F3EB
:10060000118800F065F8D4F80080D8F80830002B85
:10061000E4D0BDE8F08100BF340D0020240D00209F
:100620000548036813B9054A116821B10448054B10
:100630001860FFF7ADBE7047100900201C0D0020A8
:1006400080200008200D0020AFF30080AFF3008071
:10065000084810B5036853B9074C216821B1074A0F
:10066000074B1A60FFF794FE0120206010BD024C7A
:10067000F5E700BF100900201C0D002088200008AD
:10068000200D0020AFF30080AFF30080AFF30080B7
:10069000094810B5036833B9084C2168002903DD07
:1006A0000020206010BD054C054A064B1A60FFF77C
:1006B0006FFE0020206010BD100900201C0D0020DE
:1006C00090200008200D0020AFF30080AFF30080E1
:1006D000084810B50368002B0ADD074C216821B1DA
:1006E000064A074B1A60FFF753FE0120206010BD39
:1006F000014CF5E7100900201C0D0020982000088F
:10070000200D0020AFF30080AFF30080AFF3008036
:100710000A4810B50368002B06DD094C2168002942
:1007200003DD0020206010BD054C064A064B1A6010
:10073000FFF72EFE0020206010BD00BF1009002032
:100740001C0D0020A0200008200D0020AFF3008029
:1007500010B5202383F31188094C2368002B02DB9A
:10076000084802682AB1084B08491960FFF710FED3
:1007700023685A1C2260002383F3118810BD00BF38
:10078000100900201C0D0020200D0020A8200008CA
:1007900010B5202383F31188094C2368002B02DD58
:1007A000084802682AB1084B08491960FFF7F0FDB4
:1007B00023685A1E2260002383F3118810BD00BFF6
:1007C000100900201C0D0020200D0020B020000882
:1007D00006480368002B04DB054A1168002900DD88
:1007E00070470448044B1860FFF7D2BD1009002081
:1007F0001C0D0020B8200008200D0020AFF3008061
:100800000648036823B9064A1168002900DD7047CD
:100810000448054B1860FFF7BBBD00BF100900205E
:100820001C0D0020C0200008200D0020AFF3008028
:10083000034A4021134643F8081B5360704700BF2A
:1008400014090020AFF30080AFF30080AFF3008005
:1008500010B40D4A0D4C0E495368E46889691C6058
:100860005960846A03F110019C6090F8204002F501
:10087000816081421C7328BF02F10803516028BFC8
:10088000536010BC704700BF14090020240D0020E5
:10089000340D0020AFF30080AFF30080AFF3008091
:1008A000014B1860FFF774BD200D0020AFF30080EE
:1008B000044B4FF0FF3000225B601B609860DA60F1
:1008C000704700BF240D0020AFF30080AFF300801D
:1008D000F8B504460D4616461F46FFF779FFCCB122
:1008E000C6B1BDB10D4927610B68E6609A689542B3
:1008F00004D91B68AD1A9A68AA42FAD35A688B4287
:100900002360626014605C60A56002D09868451B3B
:100910009D60F8BD0248FFF7C3FFE3E7240D002008
:10092000D0200008AFF30080AFF30080AFF3008069
:1009300010B50446FFF74CFF84B1E36893B1236818
:100940000A4A934203D09968A26888189860606840
:10095000002203602368E260586010BD0448FFF77E
:100960009FFFEAE70348FFF79BFFE8E7240D00201D
:10097000E0200008F0200008AFF30080AFF3008013
:10098000034B00225B601B609A605B611B617047D8
:10099000340D0020AFF30080AFF30080AFF3008090
:1009A00010B50446FFF714FF94F820308BB10E2BDE
:1009B0000FD00022094BA16884F820201B6898689A
:1009C0008842FBD25968236061600C605C602046FD
:1009D00010BD0348FFF764FFEBE700BF340D0020B4
:1009E00010210008AFF30080AFF30080AFF3008068
:1009F00010B52023044683F31188FFF769FE94F8AD
:100A000020300D2B11D8DFE803F01C101007100B5D
:100A1000101010101010100BA06A81684A1C826020
:100A2000636820681860226853604FF0FF31A1624C
:100A30002046FFF7B5FFFFF76BFE002383F3118815
:100A400010BDFFF765FE002383F3118810BD00BFC2
:100A500070B5114C0646FFF7D3FEA569142085F842
:100A6000206085F82300236801211A6883F820108C
:100A7000546028462260A361FFF7EAFEEA69ADF1FF
:100A800024039A4202D90548FFF70AFFA0692946C4
:100A9000BDE87040FFF70CBD340D00202421000894
:100AA00070B50E4686B00546FFF7AAFEB6F1FF3FC9
:100AB00012D00C4C3146A3690B4A01A8FFF708FF7E
:100AC0002846FFF7C5FF049B13B101A8FFF730FFCD
:100AD000A069806A06B070BD2846FFF7B9FF014CD7
:100AE000F6E700BF340D0020F1090008AFF30080E5
:100AF00070B5144D04460E46FFF782FEA869A26841
:100B00008368A6629A4213D9FFF74AFF012206467C
:100B100084F82020AC61FFF79BFEF069ADF1240161
:100B200088420AD820463146BDE87040FFF7C0BC75
:100B30002046BDE87040FFF733BF0348FFF7B0FE23
:100B4000F0E700BF340D002024210008AFF300803F
:100B500070B5104C14212368A5691A6801205460EF
:100B600083F8200085F8231028462260A361FFF750
:100B700017FF2846FFF76CFEEA69ADF124039A429D
:100B800002D90548FFF78CFEA0692946BDE87040F0
:100B9000FFF78EBC340D002024210008AFF3008045
:100BA000144B70B51A689C691068012682F82060A1
:100BB000A16843609A6100221D46186084F82020D5
:100BC0001B689A688A42FBD858682360606004609A
:100BD0005C602046FFF73CFEE169ADF124039942D9
:100BE00002D90548FFF75CFEA8692146BDE87040C0
:100BF000FFF75EBC340D002024210008AFF3008015
:100C00000449886990F823300BB1FFF7C9BFFFF79B
:100C10009FBF00BF340D0020AFF30080AFF3008012
:100C2000F0B40022114C02260125142380F8206024
:100C300080F8212080F8233080F82250656900F187
:100C4000300600F12C0C00F14C0704618160456115
:100C5000416460610264C263426282612861C0F8DB
:100C60002CC046630663C761F0BC7047340D00209A
:100C7000F8B504460D4616461F46FFF7A9FD0CB110
:100C8000AF2D2ED81948FFF70BFE243D6119E16006
:100C900017486751069D08624D600023154A0221DE
:100CA0001427012584F8201084F8237084F822503A
:100CB00084F82130506904F1300104F12C0704F16B
:100CC0004C0522616061A66066645461236404611E
:100CD000E3636362A361E76261632163E5612046C8
:100CE000F8BD7F2ECED8002FCFD1CBE74021000812
:100CF000C1040008340D0020AFF30080AFF3008082
:100D0000F0B504460D461F4683B016464C302346C8
:100D1000FF211A4602F8011B5970531C8342F8D177
:100D20006019834215D25521DA4303F8011B00EB09
:100D3000020C83420CF001020BD01AB103F8011B24
:100D4000834206D01A4602F8011B5970531C834295
:100D5000F8D1202383F31188FFF77AFC2046089C02
:100D60003B46324629460094FFF782FF00210446A5
:100D7000FFF7BEFEFFF78CFC002383F311882046AB
:100D800003B0F0BDAFF30080AFF30080AFF300809D
:100D900010B5044610B90948FFF782FD202383F3FC
:100DA0001188FFF755FC21460620FFF779FEFFF773
:100DB0006FFC002383F3118810BD00BF8021000861
:100DC00010B52023044683F31188FFF741FC064B3E
:100DD000D968611A02D00620FFF762FEFFF758FCBF
:100DE000002383F3118810BD240D0020AFF3008091
:100DF000114B70B59C69254655F82C3FA062AB425B
:100E000007D01A681846E262FFF7CAFDE36AAB42F0
:100E1000F7D194F8210010F0030F04D1636922691F
:100E20001A6121694B610E20FFF712FE0348BDE8ED
:100E30007040FFF735BD00BF340D00209021000841
:100E400010B52023044683F31188FFF701FC2046E8
:100E5000BDE81040FFF7CCBFAFF30080AFF30080D8
:100E600010B5044620B1002364602460A36010BD67
:100E70000348FFF715FD002364602460A36010BDE4
:100E800000220008AFF30080AFF30080AFF30080D2
:100E900038B504460D46FFF79BFCBCB1E26B94F8F5
:100EA00020301543082BE5630CD0092B00D038BD4A
:100EB000A06A0540A842FAD12046FFF771FD002143
:100EC000816238BDA36A1D42F6D138BD0148FFF7E3
:100ED000E7FCE3E7DC220008AFF30080AFF300801B
:100EE00070B505460E46FFF773FC75B12C68AC4231
:100EF0000AD0E168606841EA0603E360A168FFF791
:100F0000C7FF2468AC42F4D170BD0248FFF7C8FCAB
:100F1000ECE700BF00230008AFF30080AFF30080D0
:100F200010B4034619B94FF0FF3010BC7047064C9F
:100F30000D20A26993625C68136054605A6022605D
:100F400010BCFFF7ADBD00BF340D0020AFF3008033
:100F500010B4C361019B8A18002440600060846063
:100F600041618161C1600261036210BC704700BFD2
:100F700038B504460D46FFF72BFC6369A26993421E
:100F800019D0A268511CA16003F8015B206963615C
:100F9000834228BFE368206828BF6361A04208D06D
:100FA000026822605460FFF7FBFC0023836218464E
:100FB00038BD002038BDA268002AE3D06FF00300DE
:100FC00038BD00BFAFF30080AFF30080AFF3008007
:100FD000F8B504460D46202383F31188FFF738FB4C
:100FE000E3690BB120469847A6682046294656B9C2
:100FF000FFF796FF071EF7DAFFF74AFB334683F346
:1010000011883846F8BDA369013EA66013F8017B3C
:101010002269A361934224BFE368A361FFF738FB11
:10102000002383F311883846F8BD00BFAFF300807A
:101030002DE9F0470446904689461D46C769002AB7
:1010400037D0202383F31188FFF702FB00260FB16E
:101050002046B847D4F808A020462946BAF1000F28
:101060000BD1FFF75DFF0028F4D0FFF711FB5346CB
:1010700083F311883046BDE8F087A3690AF1FF3198
:10108000A16013F8010B09F806002269A3619342DD
:1010900024BFE368A361FFF7FBFA002383F3118801
:1010A00001364645E6D0202383F31188FFF7D0FAB6
:1010B000CDE70248FFF7F4FBC3E700BF4023000879
:1010C00010B4C361019B8C18406000608260416174
:1010D0008161C1600461036210BC7047AFF300809E
:1010E0002DE9F041202304460D46164683F311886E
:1010F000FFF7AEFAA7682046314667B9FFF710FF41
:10110000B0F10008F6DAFFF7C3FA3B4683F3118823
:101110004046BDE8F0816369013FA76003F8015BC9
:1011200022696361934224BFE3686361E3690BB1A1
:1011300020469847FFF7ACFA002383F311889846BE
:101140004046BDE8F08100BFAFF30080AFF3008000
:1011500038B50446FFF73CFBA36962699A4217D091
:10116000A268511CA16013F8015B2069A36183424E
:1011700028BFE368206828BFA361A04206D00268A8
:1011800022605460FFF70CFC00238362284638BDC0
:10119000A268002AE5D06FF0020038BDAFF30080EE
:1011A0002DE9F047044615460E469946D0F81C80B6
:1011B000002A40D0202383F31188FFF749FA002743
:1011C000D4F808A020460AF1FF33BAF1000F24D06A
:1011D000A3603178636903F8011B2269636193425C
:1011E00024BFE3686361B8F1000F00D0C047FFF788
:1011F0004FFA002383F311880137013D18D00136DF
:10120000202383F31188FFF723FAD4F808A020469F
:101210000AF1FF33BAF1000FDAD120464946FFF751
:101220007FFE0028CCD0FFF733FA534683F31188B2
:101230003846BDE8F0870248FFF732FBBAE700BF47
:1012400054230008AFF30080AFF30080AFF30080B9
:10125000054B064A064823F00701064B116020F0B3
:1012600007021A60704700BF7F110020540D002054
:1012700000C00120500D0020AFF30080AFF30080CC
:1012800010B50446FFF7A4FA074A0849136809682D
:10129000E01D20F00700C91A884203D81818106012
:1012A000184610BD002010BD540D0020500D002028
:1012B00010B52023044683F31188FFF7C9F92046AF
:1012C000FFF7DEFF0446FFF7E3F9002383F31188FD
:1012D000204610BDAFF30080AFF30080AFF3008075
:1012E000044B0549002203F1100019609A60DA608E
:1012F000FFF7B6BD580D0020B1120008AFF3008013
:1013000010B500F035FB00F0C3F8054800F0D0FC44
:1013100000F04EF800F0DCF8BDE8104000F028BE08
:10132000B0240008AFF30080AFF30080AFF300807B
:101330000C30FFF77DBE00BFAFF30080AFF300803D
:101340000C304FF0FF33FFF773BE00BFAFF30080E8
:101350003030FFF725BF00BFAFF30080AFF3008050
:1013600030304FF0FF33FFF71BBF00BFAFF30080FB
:101370000C30FFF72DBE00BFAFF30080AFF300804D
:101380000C304FF0FF31FFF723BE00BFAFF30080FA
:101390003030FFF7A5BE00BFAFF30080AFF3008091
:1013A00030304FF0FF32FFF79BBE00BFAFF300803D
:1013B00000F06EBCAFF30080AFF30080AFF30080AD
:1013C00070B50B460D490646044646F8041B666098
:1013D000012682B015460C3004F154011022267209
:1013E0000094FFF7B5FD04F1300004F16401102210
:1013F0002B460094FFF764FE02B070BDD0230008B6
:1014000070B504460D46FFF7E3F9D4B163693BB10B
:1014100004F10C002946FFF7ABFD00280BDB70BD83
:10142000201D0421FFF75CFD04F10C002946FFF7A5
:101430009FFD0028F3DA201D8021BDE87040FFF7F2
:101440004FBD0248FFF72CFAE0E700BFA8230008D1
:1014500001494B6883607047001000E0AFF30080E3
:10146000084B09495A6883680968D31AC2685B1A2D
:101470009342836004D80269934238BF0361704786
:10148000C3607047001000E0780D0020AFF30080CB
:1014900010B50B4A86B00B490B4C002301A80192F2
:1014A0004FF0FF3223600393049302910592FFF7FC
:1014B000CFFF01A802998847039B236006B010BDA7
:1014C0005114000861140008780D0020AFF300806B
:1014D00000F02EBDAFF30080AFF30080AFF30080CB
:1014E000002301220270437083704360704700BF85
:1014F00010B5FFF72DF90848084A03683D24116824
:10150000946013B1406821409847FFF741F9BDE866
:101510001040FEF77DBF00BF7C0D00200060024040
:1015200010B5FFF715F90948094A83684FF4746448
:101530001168946023B18909C06801F03D019847A2
:10154000FFF726F9BDE81040FEF762BF7C0D0020D2
:1015500000600240AFF30080AFF30080AFF3008083
:1015600010B5FFF7F5F80948094A03694FF47414F8
:101570001168946023B1090C406901F03D0198475E
:10158000FFF706F9BDE81040FEF742BF7C0D0020D2
:1015900000600240AFF30080AFF30080AFF3008043
:1015A00010B5FFF7D5F80948094A83694FF074640C
:1015B0001168946023B1890DC06901F03D0198471D
:1015C000FFF7E6F8BDE81040FEF722BF7C0D0020D3
:1015D00000600240AFF30080AFF30080AFF3008003
:1015E00010B5FFF7B5F80848084A036A3D2451686A
:1015F000D46013B1406A21409847FFF7C9F8BDE8AD
:101600001040FEF705BF00BF7C0D002000600240C7
:1016100010B5FFF79DF80948094A836A4FF47464CE
:101620005168D46023B18909C06A01F03D0198472F
:10163000FFF7AEF8BDE81040FEF7EABE7C0D0020D3
:1016400000600240AFF30080AFF30080AFF3008092
:1016500010B5FFF77DF80948094A036B4FF474147D
:101660005168D46023B1090C406B01F03D019847EB
:10167000FFF78EF8BDE81040FEF7CABE7C0D0020D3
:1016800000600240AFF30080AFF30080AFF3008052
:1016900010B5FFF75DF80948094A836B4FF0746491
:1016A0005168D46023B1890DC06B01F03D019847AA
:1016B000FFF76EF8BDE81040FEF7AABE7C0D0020D3
:1016C00000600240AFF30080AFF30080AFF3008012
:1016D00010B5FFF73DF80848084A036C3D2411682F
:1016E000946013B1406C21409847FFF751F8BDE872
:1016F0001040FEF78DBE00BF7C0D0020006402404C
:1017000010B5FFF725F80948094A836C4FF4746453
:101710001168946023B18909C06C01F03D019847BC
:10172000FFF736F8BDE81040FEF772BE7C0D0020D2
:1017300000640240AFF30080AFF30080AFF300809D
:1017400010B5FFF705F80948094A036D4FF4741402
:101750001168946023B1090C406D01F03D01984778
:10176000FFF716F8BDE81040FEF752BE7C0D0020D2
:1017700000640240AFF30080AFF30080AFF300805D
:1017800010B5FEF7E5FF0948094A836D4FF0746410
:101790001168946023B1890DC06D01F03D01984737
:1017A000FEF7F6FFBDE81040FEF732BE7C0D0020CC
:1017B00000640240AFF30080AFF30080AFF300801D
:1017C00010B5FEF7C5FF0848084A036E3D2451686E
:1017D000D46013B1406E21409847FEF7D9FFBDE8B1
:1017E0001040FEF715BE00BF7C0D002000640240D3
:1017F00010B5FEF7ADFF0948094A836E4FF47464D3
:101800005168D46023B18909C06E01F03D01984749
:10181000FEF7BEFFBDE81040FEF7FABD7C0D0020CC
:1018200000640240AFF30080AFF30080AFF30080AC
:1018300010B5FEF78DFF0948094A036F4FF4741481
:101840005168D46023B1090C406F01F03D01984705
:10185000FEF79EFFBDE81040FEF7DABD7C0D0020CC
:1018600000640240AFF30080AFF30080AFF300806C
:1018700010B5FEF76DFF0948094A836F4FF0746495
:101880005168D46023B1890DC06F01F03D019847C4
:10189000FEF77EFFBDE81040FEF7BABD7C0D0020CC
:1018A00000640240AFF30080AFF30080AFF300802C
:1018B0002A492DE9F00FC8680C68D1F818A0D1F8B2
:1018C0003080D1F83CC08F6C4E6D0D6ED1F82490F5
:1018D0000023234A2360D1F86CB00360CAF80030BB
:1018E000C9F80030DFF884A0C8F80030CCF8003028
:1018F0003B6033602B608D6F1A4C1B48CAF8003078
:10190000136093601361936113629362CBF80030AC
:1019100013639363136493642B60D1F88480D1F8CC
:1019200090C0D1F89C70D1F8A860D1F8B4504FF0B5
:10193000FF31C8F800301365CCF8003093653B6088
:1019400013663360936613672B609367A160E16051
:101950008160C160BDE8F00F704700BFF023000850
:101960007C0D00200060024000640240FC0D00205D
:10197000264B30B41C69002244F0010018611A6142
:101980005D69234945F001045C615A619869214C05
:1019900040F001059D619A61186A18621A625D6AD9
:1019A0001D4845F001055D621C4D5A624D600725DA
:1019B0008A600D60E5681A4945F08075E560046845
:1019C00044F001040460186C40F08050186408680A
:1019D00040F480700860186F00F44071B1F5007F2A
:1019E00003D04FF4803119671A67084B1A6F12F44D
:1019F000004F07D1186F40F400721A67196F41F455
:101A00000040186730BCFFF753BF00BF00380240EA
:101A100010E000E0F0ED00E0001000E03F90020078
:101A200000700040AFF30080AFF30080AFF30080A0
:101A3000324B334A4FF080504FF4804110641A46C5
:101A40001960516811F4804FFBD02D4B1A6819466C
:101A500042F0010018600868294A10F0020FFAD01D
:101A60001068114640F4803313600B68244A13F465
:101A7000003FFAD0536F114643F001005067486FA2
:101A80001F4A10F0020FFAD01E4B11465360106827
:101A900040F0807313600868194A10F0007FFAD094
:101AA0009168194B41EA0300184B90601968184A75
:101AB000914219D0174B40F20570186010488368A6
:101AC000014643F00202826088680D4A00F00C0C67
:101AD000BCF1080FF8D1516C41F480405064536E52
:101AE00043F48041516670470B4B0C481A688242A0
:101AF000E0D1084A40F205111160DFE700700040B4
:101B0000003802400854400700940838002004E0E0
:101B100011640020003C024000ED00E041C20F4192
:101B2000034B998988B240F080029A81704700BFC8
:101B300000100140AFF30080AFF30080AFF30080EE
:101B40002DE9F041FEF704FE4D4B5D6FAE892C8808
:101B5000B6B2A4B214F00F0FAF8821D014F0080869
:101B600018BF4FF0800814F0010F18BF48F020088C
:101B700014F0020F18BF48F0400814F0040F18BF0B
:101B800048F48078202383F31188FEF7A1FD3D48B7
:101B90004146FFF7A5F9FEF7BBFD002383F311884B
:101BA00014F4807F3AD114F0200F28D116F0800F62
:101BB00002D014F0800F48D114F0400F19D0202328
:101BC00083F31188FEF784FD2E481021FFF788F972
:101BD000FEF79EFD002383F311884FF6BF7106EADE
:101BE0000100A881B5F800C02CF040031A04110CC4
:101BF0002980FEF7CDFDBDE8F041FEF709BC2023AA
:101C000083F31188FEF764FD1D48F9B2FFF7F8FB76
:101C1000FEF77EFD002383F31188C7E7202383F3BB
:101C20001188FEF755FD17484FF40071FFF758F97A
:101C3000FEF76EFD002383F31188B5F800C02CF485
:101C400080721104080C2880ADE7202383F31188EB
:101C5000FEF73EFD0C48FFF77BFA002806DBA88064
:101C6000FEF756FD002383F31188A5E705480821F8
:101C7000FFF736F926F0C00040F04003AB81EFE7F4
:101C8000000E0020040E0020300E0020AFF3008074
:101C900010B5044C00212046034AFFF791FB034B8B
:101CA000636710BD000E0020211B000800100140DA
:101CB0006E4B2DE9F0031C6BDFF8D0816FEA542CDA
:101CC0006FEA4C2119631A6DDFF8C4C16FEA52291B
:101CD0006FEA49271F654668654FC8F80460856844
:101CE000644EC8F80850C468634DC8F80C400169D8
:101CF000624CC8F8141042696149C8F82020836911
:101D0000604AC8F82430D0F800905F4BC8F80090C3
:101D1000D0F82080CCF80480D0F82480CCF808805B
:101D2000D0F82880CCF80C80D0F82C80CCF8148027
:101D3000D0F83080CCF82080D0F83480CCF82480E3
:101D4000D0F81C80CCF80080D0F83CC0C7F804C0A4
:101D5000D0F840C0C7F808C0D0F844C0C7F80CC0DD
:101D6000D0F848C0C7F814C0D0F84CC0C7F820C09D
:101D7000D0F850C0C7F824C0D0F838C0C7F800C0A9
:101D8000876D7760C76DB760076EF760476E7761E4
:101D9000876E3762C76E7762476D3760466F6E60D9
:101DA000866FAE60C66FEE60D0F880606E61D0F86E
:101DB00084602E62D0F888606E62066F2E60D0F864
:101DC00090506560D0F89450A560D0F89850E560C8
:101DD000D0F89C506561D0F8A0502562D0F8A4508E
:101DE0006562D0F88C502560D0F8AC404C60D0F8DB
:101DF000B0408C60D0F8B440CC60D0F8B8404C61B2
:101E0000D0F8BC400C62D0F8C0404C62D0F8A8407A
:101E10000C60D0F8C8105160D0F8CC109160D0F8A8
:101E2000D010D160D0F8D4105161D0F8D810116220
:101E3000D0F8DC105162D0F8C4101160D0F8E42062
:101E40005A60D0F8E8109960D0F8EC20DA60D0F849
:101E5000F0105961D0F8F4201A62D0F8F8105962E5
:101E6000D0F8E0201A60BDE8F00370470038024067
:101E700000080240000C0240001002400014024022
:101E800000180240001C02400020024000000240F6
:101E900000040240AFF30080AFF30080AFF3008096
:101EA00070B51F4EFEF754FCB56840F20F102C8839
:101EB000AA88A4B204EA0003FBB171684FF6FF627E
:101EC0000B692A80CBB114F0080118BF102114F05F
:101ED000010F18BF41F0040114F0020F18BF41F0C8
:101EE000080114F0040F18BF41F0200114F4807FA2
:101EF00018BF41F040010A48984714F0400F08D03D
:101F000073684FF6BF7C5B68A5F800C00BB104484E
:101F10009847FEF73DFCBDE87040FEF779BA00BF78
:101F2000780E0020AFF30080AFF30080AFF30080A5
:101F300010B5064C2046FFF7D3FA054B054903F1CF
:101F40003C02A1602361626110BD00BF780E0020D9
:101F50006824000800140140AFF30080AFF3008054
:101F6000FFF766BDAFF30080AFF30080AFF30080F2
:101F7000704700BFAFF30080AFF30080AFF3008085
:101F80000D4838B50D4A83690D4D0E4C9A610423F6
:101F9000402280216B834FF4FA7062836183FEF7E5
:101FA000F7FE0423402280212B834FF4FA70228312
:101FB0002183FEF7EDFEEAE7340D0020B02500088E
:101FC0000010024000040240AFF30080AFF3008035
:101FD000054906488B69064A10B5C4689A611434ED
:101FE0002046FEF7EDFEFAE7340D0020240D002018
:101FF000B8250008AFF30080AFF30080AFF3008096
:1020000070B50F4D82B01026FFF77AF90024FEF765
:102010008FFA4FF4D87140220A4B2E830A4800945D
:10202000FEF76EFE09484FF498714022084B009469
:10203000FEF766FE4FF47A70FEF7AAFEFAE700BFDD
:10204000000C0240D11F0008C80F0020980E00208D
:10205000811F0008AFF30080AFF30080AFF3008072
:1020600069646C65000000000000000000000000D2
:102070005356233100000000535623320000000065
:102080005356233300000000535623340000000051
:10209000535623350000000053562336000000003D
:1020A0005356233700000000535623380000000029
:1020B00053562339000000005356233130000000EE
:1020C00053562331310000000000000000000000E2
:1020D0002263685654536574492228290000000081
:1020E000226368565452657365744922282900009A
:1020F0006368565452657365744928292C2023312E
:1021000000000000000000000000000000000000CF
:10211000636853636852656164794928292C2023D8
:1021200031000000737461636B206F766572666CBA
:102130006F770000000000000000000000000000B9
:102140002263685468644372656174654922282972
:10215000000000002263685468645365745072691B
:102160006F7269747922282900000000636854683E
:1021700064526573756D6528292C20233100000099
:10218000226368546864536C6565702228290000D6
:102190006368546864457869745328292C20233176
:1021A0000000000022636854686457616974222843
:1021B0002900000063685468645761697428292CF9
:1021C0002023310063685468645761697428292C9E
:1021D000202332000000000000000000000000008A
:1021E0006D61696E0016411104044C080C1014183E
:1021F0001C20212223240000000000000000000019
:102200002263684D7478496E6974222829000000A1
:102210002263684D74784C6F636B53222829000049
:1022200063684D74784C6F636B5328292C202331DD
:102230000000000063684D74784C6F636B5328296D
:102240002C202332000000002263684D7478547201
:10225000794C6F636B5322282900000063684D742A
:1022600078556E6C6F636B28292C20233100000099
:1022700063684D7478556E6C6F636B28292C20232E
:102280003200000063684D7478556E6C6F636B5359
:1022900028292C202331000063684D7478556E6C1A
:1022A0006F636B5328292C202332000000000000AC
:1022B00022636845767452656769737465724D610F
:1022C000736B222829000000226368457674556EDE
:1022D00072656769737465722228290022636845F4
:1022E00076745369676E616C4922282900000000EA
:1022F0002263684576745369676E616C22282900F1
:1023000022636845767442726F6164636173744DD1
:1023100061736B49222829002263684576744469F9
:102320007370617463682228290000006368457631
:1023300074446973706174636828292C2023310008
:1023400022636849515265616454696D656F7574A3
:10235000222829002263684F5157726974655469B5
:102360006D656F75742228290000000000000000D0
:102370002273645374617274222829007364537445
:1023800061727428292C20233100000022736453C9
:10239000746F702228290000736453746F702829A9
:1023A0002C20233100000000227364496E636F6D9E
:1023B000696E67446174614922282900227364525E
:1023C0006571756573744461746149222829000040
:1023D0006113000841130008A113000881130008CD
:1023E00091130008711300085113000831130008FD
:1023F000106002400860024000000B0028600240AC
:102400000860024006010C00406002400860024083
:1024100010020D00586002400860024016030E00D2
:10242000706002400C60024000040F0088600240AF
:102430000C60024006051000A06002400C600240E3
:1024400010061100B86002400C60024016072F0011
:10245000106402400864024000083800286402400A
:1024600008640240060939004064024008640240E2
:10247000100A3A005864024008640240160B3B0000
:10248000706402400C640240000C3C00886402400E
:102490000C640240060D4400A06402400C6402403B
:1024A000100E4500B86402400C640240160F46004E
:1024B0000000000000000000FFFFFFFFFFFFFFFF24
:1024C000FFFFFFFF000000000000000000A0000070
:1024D00000000000FFFFFFFFFFFFFFFFFFFFFFFF08
:1024E000000000770000000000A0000000000000D5
:1024F000FFFFFFFFFFFFFFFFFFFFFFFF0000008860
:10250000000000000000000000000000FFFFFFFFCF
:10251000FFFFFFFFFFFFFFFF0000000000000000C3
:102520001000000000000000FFFFFFFFFFFFFFFFA3
:10253000FFFFFFFF0000000000000000000000009F
:1025400000000000FFFFFFFFFFFFFFFFFFFFFFFF97
:10255000000000000000000000000000000000007B
:10256000FFFFFFFFFFFFFFFFFFFFFFFF0000000077
:10257000000000000000000000000000FFFFFFFF5F
:10258000FFFFFFFFFFFFFFFF000000000000000053
:102590000000000000000000FFFFFFFFFFFFFFFF43
:1025A000FFFFFFFF0000000000000000000000002F
:1025B000626C696E6B6572007461736B32306D733F
:0425C0000000000017
:04000005080001905E
:00000001FF
