:020000040800F2
:100000000004002051070008210900082109000808
:100010002109000821090008210900082109000818
:1000200021090008210900082109000841090008E8
:10003000210900082109000821090008110A000807
:1000400021090008210900082109000821090008E8
:1000500021090008210900082109000821090008D8
:10006000210900082109000821090008F1170008EA
:10007000211800085118000881180008B11800085C
:10008000E118000811190008611E000891210008FC
:10009000E121000851220008C122000821090008BE
:1000A00021090008D12700082109000801280008BB
:1000B0002109000821090008210900082109000878
:1000C0002109000821090008210900082109000868
:1000D00021090008812B0008A12B00082109000834
:1000E0002109000821090008210900082109000848
:1000F0002109000821090008210900084119000808
:100100002109000821090008210900082109000827
:100110002109000821090008210900082109000817
:1001200071190008A1190008D1190008011A000866
:10013000311A0008210900082109000821090008D6
:1001400021090008210900082109000821090008E7
:10015000611A0008911A0008C11A0008C12B000892
:1001600021090008210900082109000821090008C7
:1001700021090008210900082109000821090008B7
:1001800021090008210900082109000821090008A7
:100190002109000821090008210900082109000897
:0C01A000210900082109000821090008BD
:1001B000F0B583B001F07CF900F09AFC4FF4406395
:1001C0004FF48051C4F20203C4F2020110254FF42F
:1001D000007700221D834FF480404F83C4F2020257
:1001E0004FF400564FF400674F8340244E834883FA
:1001F0008021548351834FF480521A831E834FF41D
:100200000046188300251E8302F0D2FF02F0E8FDAD
:1002100003F076F84FF4E87122460D4B00950D4837
:1002200000F07EFE4FF4A87122460B4B00950B4860
:1002300000F076FE00950A480A4B4FF434712246CE
:1002400000F06EFE4FF4FA7000F082FEFAE700BF95
:1002500081310008C80F002001320008700E002014
:100260009811002041310008AFF30080AFF3008007
:1002700080F0004002E000BF81F0004142001FBF5B
:100280005FEA410392EA030F7FEA226C7FEA236C64
:100290006AD04FEA1262D2EB1363C1BFD218414059
:1002A00048404140B8BF5B42192B88BF704710F0EF
:1002B000004F40F4000020F07F4018BF404211F092
:1002C000004F41F4000121F07F4118BF494292EAFA
:1002D000030F3FD0A2F1010241FA03FC10EB0C0026
:1002E000C3F1200301FA03F100F0004302D54942B3
:1002F00060EB4000B0F5000F13D3B0F1807F06D360
:1003000040084FEA310102F10102FE2A51D2B1F157
:10031000004F40EBC25008BF20F0010040EA03004C
:100320007047490040EB000010F4000FA2F10102F9
:10033000EDD1B0FA80FCACF1080CB2EB0C0200FA83
:100340000CF0AABF00EBC25052421843BCBFD040D1
:100350001843704792F0000F81F4000106BF80F44B
:1003600000000132013BB5E74FEA41037FEA226C0E
:1003700018BF7FEA236C21D092EA030F04D092F0D9
:10038000000F08BF0846704790EA010F1CBF00200D
:10039000704712F07F4F04D1400028BF40F000406A
:1003A000704712F100723CBF00F50000704700F08A
:1003B000004343F0FE4040F4000070477FEA2262B1
:1003C00016BF08467FEA23630146420206BF5FEA82
:1003D000412390EA010F40F4800070474FF0000382
:1003E00004E000BF10F0004348BF40425FEA000C49
:1003F00008BF704743F0964301464FF000001CE0F1
:1004000050EA010208BF70474FF000030AE000BF46
:1004100050EA010208BF704711F0004302D5404284
:1004200061EB41015FEA010C02BF844601460020F6
:1004300043F0B64308BFA3F18053A3F50003BCFA11
:100440008CF2083AA3EBC25310DB01FA02FC6344BE
:1004500000FA02FCC2F12002BCF1004F20FA02F2C5
:1004600043EB020008BF20F00100704702F12002B8
:1004700001FA02FCC2F1200250EA4C0021FA02F219
:1004800043EB020008BF20EADC7070470000000068
:100490004FF0FF0C1CEAD0521EBF1CEAD15392EA67
:1004A0000C0F93EA0C0F6FD01A4480EA010C400243
:1004B00018BF5FEA41211ED04FF0006343EA50109D
:1004C00043EA5111A0FB01310CF00040B1F5000FDF
:1004D0003EBF490041EAD3715B0040EA010062F18E
:1004E0007F02FD2A1DD8B3F1004F40EBC25008BF78
:1004F00020F00100704790F0000F0CF0004C08BF96
:1005000049024CEA502040EA51207F3AC2BFD2F162
:10051000FF0340EAC250704740F400004FF0000370
:10052000013A5DDC12F1190FDCBF00F000407047AA
:10053000C2F10002410021FA02F1C2F1200200FAE8
:1005400002FC5FEA310040F1000053EA4C0308BFAF
:1005500020EADC70704792F0000F00F0004C02BF00
:10056000400010F4000F013AF9D040EA0C0093F07B
:10057000000F01F0004C02BF490011F4000F013BD5
:10058000F9D041EA0C018FE70CEAD15392EA0C0F43
:1005900018BF93EA0C0F0AD030F0004C18BF31F0AE
:1005A000004CD8D180EA010000F00040704790F084
:1005B000000F17BF90F0004F084691F0000F91F028
:1005C000004F14D092EA0C0F01D142020FD193EAEE
:1005D0000C0F03D14B0218BF084608D180EA010076
:1005E00000F0004040F0FE4040F40000704740F052
:1005F000FE4040F4400070474FF0FF0C1CEAD05220
:100600001EBF1CEAD15392EA0C0F93EA0C0F69D07B
:10061000A2EB030280EA010C49024FEA402037D0E6
:100620004FF0805343EA111143EA10130CF00040DD
:100630008B4238BF5B0042F17D024FF4000C8B42CD
:1006400024BF5B1A40EA0C00B3EB510F24BFA3EBAD
:10065000510340EA5C00B3EB910F24BFA3EB91037D
:1006600040EA9C00B3EBD10F24BFA3EBD10340EAD7
:10067000DC001B0118BF5FEA1C1CE0D1FD2A3FF61D
:1006800050AF8B4240EBC25008BF20F001007047D2
:100690000CF0004C4CEA50207F32C2BFD2F1FF0375
:1006A00040EAC250704740F400004FF00003013AA6
:1006B00037E792F0000F00F0004C02BF400010F44A
:1006C000000F013AF9D040EA0C0093F0000F01F05E
:1006D000004C02BF490011F4000F013BF9D041EA80
:1006E0000C0195E70CEAD15392EA0C0F08D14202B3
:1006F0007FF47DAF93EA0C0F7FF470AF084676E786
:1007000093EA0C0F04D14B023FF44CAF08466EE75E
:1007100030F0004C18BF31F0004CCAD130F000422C
:100720007FF45CAF31F000437FF43CAF5FE700BF84
:10073000704700BFAFF30080AFF30080AFF30080DD
:10074000FEE700BFAFF30080AFF30080AFF300809F
:1007500072B6644C84F30988022383F31488BFF3D0
:100760006F8F61486149884218D2CA1C051D531B0E
:1007700023F00302034610184FF0553183421960ED
:10078000C2F380020AD01AB185422B46296005D0F7
:100790001D1D5960083383426960F9D15448A04255
:1007A00018D25449041D0A1B22F0030503462818D9
:1007B0004FF0553183421960C5F380020AD01AB157
:1007C00084422346216005D01D1D596008338342B1
:1007D0006960F9D102F0B4FA4749484881421BD216
:1007E000C61C0C1D321B464822F00302161D05686C
:1007F0000423B3420D60C2F380020DD022B14568DC
:100800000823B342256007D01A1D1D5884585D5037
:100810000833B3428C50F7D13A483B49884217D24B
:10082000CB1C041D1A1B22F00305034628180021C7
:1008300083421960C5F380020AD01AB1844223466C
:10084000216005D01D1D5960083383426960F9D1CC
:10085000FFF76EFF2D4D2E498D421DD2CC1C2E1D53
:10086000A71BB808471C01242A6800EA040890471F
:10087000BC4211D0B8F1000F05D00224336898476C
:10088000BC42354608D0696888470234A8682E1DE6
:1008900080470835BC42F6D1FFF78AFC1D4D1E4A41
:1008A00095421DD2D41C2E1DA71BBB085F1C012422
:1008B000296803EA04088847BC4211D0B8F1000F48
:1008C00005D0022430688047BC42354608D06A68AB
:1008D00090470234AB682E1D98470835BC42F6D1CC
:1008E000FFF72EFF00080020000000200004002079
:1008F0000004002003080020000800204008002019
:10090000883500084008002074140020AC0100085D
:10091000AC010008AC010008AC010008AFF3008096
:10092000FEE700BFAFF30080AFF30080AFF30080BD
:1009300000F086FA00DF00BFAFF30080AFF3008065
:10094000EFF30983203383F30988002383F31188AD
:10095000704700BFAFF30080AFF30080AFF30080BB
:1009600008B54FF46D43CEF200034FF44072C0F26D
:10097000FA520021996007201021DA6000F090F807
:100980000A20202100F08CF80B208021BDE80840CF
:1009900000F086B8AFF30080AFF30080AFF30080C3
:1009A000202383F311884FF46D43CEF2000358687F
:1009B00010F4006319D0EFF309834FF0807243F80D
:1009C000042CA3F1200181F309880E498A69096882
:1009D000D07F8968926858B1914294BF0022012269
:1009E00062B1094A43F8082C704783F311887047B5
:1009F000914234BF00220122002AF2D1034843F879
:100A0000080C7047780900203109000834090008F3
:100A100008B5202383F3118800F0A2F8002383F3A4
:100A20001188BDE80840FFF7BBBF00BFAFF30080EF
:100A30002DE9F04FC1F80CD0D0F80CD0BDE8F08F04
:100A4000002383F311882846A04700F0C9FA7047B5
:100A5000F0B44FF461438408CEF20003C03400F0D8
:100A6000030553F82470ED00FF26420906FA05F647
:100A700027EA060601FA05F500F01F0002F16007FB
:100A8000012101FA00F02E4343F8246043F82700C7
:100A900043F82200F0BC7047AFF30080AFF3008052
:100AA00082084FF46D43CEF20003063200F00300DB
:100AB00030B4C00053F82250FF2404FA00F425EAB1
:100AC000040401FA00F10C4343F8224030BC7047A3
:100AD000024B034A98698261FEE700BF7809002053
:100AE00030330008AFF30080AFF30080AFF3008035
:100AF00000B583B0FFF734FF00F0DAF800F060F8DB
:100B000000F08EFC00F0C4FC40F640004021C2F230
:100B1000000000F0A5F940F67811C2F200010122B0
:100B200088610277002383F3118862B643F2403074
:100B30008969C0F600008861009340F6880040F69D
:100B4000D123E021C0F60003C2F2000000F0E8F972
:100B500003B000BDAFF30080AFF30080AFF30080BF
:100B600038B5134B9869C27F0AB1511EC177036A29
:100B7000104C5A1C0262E0682268411CA242E160EB
:100B800014D09568013D956085B91368D1685C60A3
:100B90002360D560002383F31188106988472023E0
:100BA00083F31188226890680028EED038BD00BF1A
:100BB0007809002068090020AFF30080AFF30080BF
:100BC00040F66813C2F200034FF0FF3200205B6072
:100BD0001B609A60D8607047AFF30080AFF300806D
:100BE00070B40C4E03613468C260A568A94204D990
:100BF0002468491BA5688D42FAD363680460B44237
:100C0000436018606060816002D0A068411AA160F2
:100C100070BC704768090020AFF30080AFF300801C
:100C20000368074A934203D09968826889189960DB
:100C300042681360036800215A60C160704700BFBA
:100C400068090020AFF30080AFF30080AFF30080AD
:100C5000202383F31188037F0D2B11D8DFE803F0E5
:100C600020101007100B101010101010100B416AFC
:100C70008A68531C8B6090E80C001A6001684B6016
:100C80004FF0FF3242628168074B002202771B68F7
:100C90009A688A42FBD259680360416008605860D4
:100CA000002383F31188704778090020AFF3008098
:100CB00040F67813C2F2000300225B601B609A606A
:100CC0005B611B61704700BFAFF30080AFF3008032
:100CD00000228168054B02771B689A688A42FBD222
:100CE00059680360416008605860704778090020C7
:100CF00040F67813C2F2000310B499691A680877B5
:100D000014201468C87701201077104663601C60B7
:100D10009A6110BCFFF78CBEAFF30080AFF3008088
:100D200030B54B1C87B0054611D00B4C0B4AA3695C
:100D300001A8FFF755FF2846FFF7DAFF049B13B120
:100D400001A8FFF76DFFA069406A07B030BDFFF74B
:100D5000CFFF014CF7E700BF78090020510C0008D5
:100D6000F0B4144F8568BE690446B0686162002320
:100D700085420CD82377394609688A689542FBD9A1
:100D800048682160606004604C60F0BC7047337755
:100D9000394609688A689042FBD9486831607060BA
:100DA00006604E600123204631462377BC61F0BCCB
:100DB000FFF73EBE78090020AFF30080AFF300805C
:100DC0000E4B18689969026830B453601A608C68D9
:100DD00098610125142300220577CB770A77034613
:100DE00000E01B689A68A242FBD25A680B604A6016
:100DF0001160596030BCFFF71BBE00BF78090020AE
:100E00000D4B18689969026830B453608C681A6099
:100E100001259861002305770B77034600E01B68E6
:100E20009A68A242FBD85A680B604A601160596008
:100E300030BCFFF7FDBD00BF78090020AFF3008094
:100E4000034B9869C17F09B1FFF7DABFFFF7B8BF5D
:100E500078090020AFF30080AFF30080AFF300808B
:100E6000F0B440F67814C2F200040022656901640F
:100E7000046100F12C06816000F1280745614FF004
:100E8000020C60610121142480F81CC04277C477F1
:100E9000C26382630262817782612861876206632E
:100EA000C662F0BC704700BFAFF30080AFF30080B4
:100EB0002DE9F00340F67815C2F20005A1F1240CEB
:100EC00000EB0C076969C76040F80C30069B7B603B
:100ED00040F64123C0F600033B620223037714234C
:100EE0000026904600F1280900F12C02C377012367
:100EF0000561C0F808804161044668614677C0F822
:100F00004080C66386630662837786610861C0F8A5
:100F100028900263C262BDE8F0037047AFF300801F
:100F200010B51C4682B0202383F311882346049C0D
:100F30000094FFF7BDFF00210446FFF711FF0023D7
:100F400083F31188204602B010BD00BFAFF30080CC
:100F500008B50146202383F311880620FFF7E0FE41
:100F6000002383F3118808BDAFF30080AFF3008046
:100F700008B5202383F31188054BD968411A02D0A4
:100F80000620FFF7CDFE002383F3118808BD00BFC4
:100F900068090020AFF30080AFF30080AFF300805A
:100FA00038B50E4B9C692546606255F8280FA8425B
:100FB00006D00168A162FFF78BFEA06AA842F8D1B3
:100FC000607F830704D1636922691A6121694B61DB
:100FD0000E20BDE83840FFF78BBE00BF7809002027
:100FE000202383F31188FFF7DBBF00BFAFF300803E
:100FF0004060006081607047AFF30080AFF3008015
:1010000003468068421E002A10B40C469A6002DB38
:10101000002010BC704759B1074CA26953625C684C
:10102000032082E818005A60226010BCFFF778BEE7
:1010300098604FF0FF30ECE778090020AFF30080B4
:1010400082680346501C0028986000DD70471A68CB
:101050001168104619604B6000235362FFF738BED9
:101060000023406000608360704700BFAFF30080E2
:1010700030B4202383F3118840F67813C2F20003C2
:1010800004689D690C600024016023464D608A60FD
:10109000CC6083F3118830BC704700BFAFF3008091
:1010A000202383F31188024600E01A461368834226
:1010B00003D09942F9D108681060002383F31188A6
:1010C000704700BFAFF30080AFF30080AFF3008044
:1010D00008B5826B037F1143082B81630BD0092B6A
:1010E00000D008BD426A11408A42FAD1FFF7F0FDF4
:1010F0000021416208BD436A1942F7D108BD00BF13
:1011000070B50468A04205460E4608D0201D0BC8E5
:101110003343E360FFF7DCFF2468A542F6D170BDDE
:10112000104B70B59E690446202383F31188B26B7F
:1011300014EA02050ED121B92B4683F31188284603
:1011400070BD08207462FFF7EBFD0028F4DBB26B82
:1011500004EA020522EA0502B263002383F3118840
:10116000284670BD78090020AFF30080AFF30080FF
:1011700010B4024659B1084B9B69586244680D206F
:1011800083E814005360236010BCFFF7C9BD4FF023
:10119000FF3010BC704700BF78090020AFF300801B
:1011A00010B4C361019B40608A1800240060846011
:1011B00041618161C1600261036210BC704700BF80
:1011C000426908B503468069824298681AD00130A6
:1011D000986002F8011B19695A618A420BD218689B
:1011E00098420DD0016819604B60FFF771FD002334
:1011F0004362184608BD1868DA6898425A61F1D10E
:10120000002008BD0028E2D06FF0030008BD00BF39
:1012100070B5202304460E4683F31188C36903B1D9
:101220009847A568204631463DB9FFF7A1FF002841
:10123000F7DA2B4683F3118870BDA1692269013D5D
:10124000A56011F8010B9142A16124BFE168A16181
:10125000002383F3118870BDAFF30080AFF30080EB
:101260002DE9F0471E460446C769202383F3118801
:101270004FF0000801F1010901EB020A0FB120460D
:10128000B847A568204631464DB9FFF771FF0028E1
:10129000F7D02B4683F311884046BDE8F087A36959
:1012A000013DA56013F8012B09F8012C2069A36109
:1012B000834224BFE368A361002383F31188D145EF
:1012C00008F10108E8D0202383F3118809F101090E
:1012D000D4E700BFAFF30080AFF30080AFF300802E
:1012E00010B4C361019B40608C1800608260416152
:1012F0008161C1600461036210BC7047AFF300807C
:10130000F8B504460F461646202383F31188A568D6
:10131000204631463DB9FFF72BFF0028F7DA2B4670
:1013200083F31188F8BD6369013DA56003F8017B73
:1013300022696361934228BFE368E16928BF636162
:1013400009B120468847002383F311881846F8BD69
:10135000826941699142034610B5806816D0441CE9
:101360009C6012F8014B19699A618A420BD2186885
:10137000984206D0016819604B60FFF7A9FC002372
:101380004362204610BDDA689A61F0E70028E6D093
:101390006FF0020010BD00BFAFF30080AFF300801C
:1013A0002DE9F0479A46044688461646D0F81C9028
:1013B000202383F311880027A56820466B1EEDB11A
:1013C000A360656918F8011B05F8011B22696561B6
:1013D000954224BFE2686261B9F1000F00D0C847AE
:1013E000002383F311880137013E10D0202383F3BB
:1013F0001188A56820466B1E002DE1D1204651467C
:10140000FFF7B6FE0028D7D02B4683F31188384665
:10141000BDE8F087AFF30080AFF30080AFF300804A
:1014200040F6981240F694134CF200010648C2F2BE
:101430000002C2F20003C2F2010120F0070021F015
:1014400007011060196070477B140020AFF3008023
:10145000202383F31188094B09491A68096807306A
:1014600020F00700891A88429ABF101818600022DD
:10147000002383F311881046704700BF98090020AD
:1014800094090020AFF30080AFF30080AFF3008039
:1014900040F6A013C2F2000341F251410022C0F60F
:1014A000000103F1100019609A60DA60FFF7D8BDFF
:1014B00008B500F0BDFB43F25040C0F6000001F05B
:1014C0001FF800F025F800F03BF800F0B1F800F04C
:1014D0001FF900F07DF9BDE8084001F039BC00BFFC
:1014E0004FF48053CEF2000381425A6806D98242FB
:1014F00008D38A422CBF0020012070478242F8D3D3
:101500000120704700207047AFF30080AFF30080E8
:1015100000F06EBCAFF30080AFF30080AFF300804B
:1015200000230122027043608360C3600361436152
:101530001830FFF795BD00BFAFF30080AFF3008018
:1015400000F0FEBEAFF30080AFF30080AFF3008089
:1015500038B50446002501232946237000F1080010
:101560006560FFF745FD294604F11400FFF740FDD3
:1015700004F1200504F1240004F1280104F12C02F7
:1015800004F1300325626062A162E262236338BD28
:1015900038B504460D46202383F311880378022BC7
:1015A00006D106200121FFF7BBFB2378022BF8D0E0
:1015B000012B03D0002383F3118838BD20466560DA
:1015C00000F0D6FE03202070F4E700BFAFF30080E8
:1015D0002DE9F843984604460E469146202383F3AE
:1015E000118800F114072578042D3146204602D0D9
:1015F00000F0FEFE50B938464146FFF701FD0028D5
:10160000F1D0002383F31188BDE8F88320463146EA
:101610004A4600F00DFF002383F311881846BDE809
:10162000F88300BFAFF30080AFF30080AFF300801A
:1016300001F01EB9AFF30080AFF30080AFF300807C
:101640000123002103704160704700BFAFF30080A9
:1016500010B52023044683F311888B8841600381F1
:1016600001F016F902202070002383F3118810BDC9
:1016700008B5202383F3118801F0A2F9002383F336
:10168000118808BDAFF30080AFF30080AFF3008096
:101690000C30FFF7E5BD00BFAFF30080AFF3008073
:1016A0000C304FF0FF33FFF7DBBD00BFAFF300801E
:1016B0003030FFF775BE00BFAFF30080AFF300809E
:1016C00030304FF0FF33FFF76BBE00BFAFF3008049
:1016D0000C30FFF79DBD00BFAFF30080AFF300807B
:1016E0000C304FF0FF31FFF793BD00BFAFF3008028
:1016F0003030FFF705BE00BFAFF30080AFF30080CE
:1017000030304FF0FF32FFF7FBBD00BFAFF300807A
:1017100001F066BAAFF30080AFF30080AFF3008052
:1017200070B543F260330546C0F60003044645F841
:10173000043B82B0656001250B46164604F1540156
:101740001022257200F10C000094FFF729FD00948F
:1017500004F1300004F1640110223346FFF7C0FDAC
:1017600002B070BDAFF30080AFF30080AFF3008034
:1017700010B52023044683F3118801F069FA02238F
:101780002372002383F3118810BD00BFAFF30080E4
:1017900038B5436904460D463BB104F10C002946B7
:1017A000FFF70EFD00280BDB38BD04300421FFF7E6
:1017B000A7FC04F10C002946FFF702FD0028F3DA2C
:1017C000201D8021BDE83840FFF79ABCAFF30080B0
:1017D00000F0D6BFAFF30080AFF30080AFF300801E
:1017E000002301220270436083600C30FFF738BC95
:1017F00008B54FF4C043C4F20203064819680268F2
:1018000001F03D0199600AB140689047BDE8084089
:10181000FFF7C6B8C0090020AFF30080AFF3008027
:101820004FF4C043C4F2020307481968826810B538
:101830008C0904F03D018C019C600AB1C06890479E
:10184000BDE81040FFF7ACB8C0090020AFF300803E
:101850004FF4C043C4F2020307481968026910B587
:101860000C0C04F03D010C049C600AB140699047E7
:10187000BDE81040FFF794B8C0090020AFF3008026
:101880004FF4C043C4F2020307481968826910B5D7
:101890008C0D04F03D018C059C600AB1C069904735
:1018A000BDE81040FFF77CB8C0090020AFF300800E
:1018B00008B54FF4C043C4F2020306485968026AEF
:1018C00001F03D01D9600AB1406A9047BDE8084087
:1018D000FFF766B8C0090020AFF30080AFF30080C7
:1018E0004FF4C043C4F2020307485968826A10B536
:1018F0008C0904F03D018C01DC600AB1C06A90479C
:10190000BDE81040FFF74CB8C0090020AFF30080DD
:101910004FF4C043C4F2020307485968026B10B584
:101920000C0C04F03D010C04DC600AB1406B9047E4
:10193000BDE81040FFF734B8C0090020AFF30080C5
:101940004FF4C043C4F2020307485968826B10B5D4
:101950008C0D04F03D018C05DC600AB1C06B904732
:10196000BDE81040FFF71CB8C0090020AFF30080AD
:1019700008B54FF4C843C4F2020306481968026C64
:1019800001F03D0199600AB1406C9047BDE8084004
:10199000FFF706B8C0090020AFF30080AFF3008066
:1019A0004FF4C843C4F2020307481968826C10B5AB
:1019B0008C0904F03D018C019C600AB1C06C904719
:1019C000BDE81040FEF7ECBFC0090020AFF3008077
:1019D0004FF4C843C4F2020307481968026D10B5FA
:1019E0000C0C04F03D010C049C600AB1406D904762
:1019F000BDE81040FEF7D4BFC0090020AFF300805F
:101A00004FF4C843C4F2020307481968826D10B549
:101A10008C0D04F03D018C059C600AB1C06D9047AF
:101A2000BDE81040FEF7BCBFC0090020AFF3008046
:101A300008B54FF4C843C4F2020306485968026E61
:101A400001F03D01D9600AB1406E9047BDE8084001
:101A5000FEF7A6BFC0090020AFF30080AFF30080FF
:101A60004FF4C843C4F2020307485968826E10B5A8
:101A70008C0904F03D018C01DC600AB1C06E904716
:101A8000BDE81040FEF78CBFC0090020AFF3008016
:101A90004FF4C843C4F2020307485968026F10B5F7
:101AA0000C0C04F03D010C04DC600AB1406F90475F
:101AB000BDE81040FEF774BFC0090020AFF30080FE
:101AC0004FF4C843C4F2020307485968826F10B547
:101AD0008C0D04F03D018C05DC600AB1C06F9047AD
:101AE000BDE81040FEF75CBFC0090020AFF30080E6
:101AF0002DE9F00F40F640258AB0C2F2000546F20B
:101B000040400295783046F21045C4F20205A0F537
:101B100080600495C4F2020046F240450390C4F28E
:101B2000020546F228400695C4F2020046F27045CE
:101B30000590C4F2020546F258400195C4F2020035
:101B400046F2B8450790C4F2020546F2884009956E
:101B5000C4F20200029D089046F2100B002040F6ED
:101B6000C01346F2280A46F2400946F2580846F2E7
:101B7000700C46F2880746F2A006C2F20003286005
:101B8000C4F2020B039DCBF80000C4F2020AC4F2B7
:101B90000209C4F20208C4F2020CC4F20207C4F241
:101BA00002061860CAF800009860C9F800001861C1
:101BB000C8F800009861CCF800001862386098629C
:101BC000306018632860049D98632860059D186440
:101BD0002860069D98642860079D186546F21044A9
:101BE00028606034019D986530342860C4F2020496
:101BF000089D18664FF4C0414FF4C8422860C4F2F3
:101C000002019866C4F202022060099C18674FF036
:101C1000FF35206098678D60CD609560D5600AB013
:101C2000BDE8F00F704700BFAFF30080AFF3008056
:101C30004FF46053C4F2020370B400224FF0FF343B
:101C400019691C611A6159695C615A611E6A4EF218
:101C5000100166F080561E62CEF200011A6249F24F
:101C60003F054EF6F0505E6A5C62CEF2000007243B
:101C7000C0F202055A624D608A600C60C4684FF47D
:101C80008051CEF2000144F08074C460086840F0D6
:101C900001000860186C4FF4E041C4F2000140F00C
:101CA00080501864086840F480700860196F01F46F
:101CB0004070B0F5007F03D04FF4803119671A6788
:101CC0004FF4E043C4F200035A6822F400705860F5
:101CD00070BCFFF70DBF00BFAFF30080AFF3008013
:101CE0004FF460514FF4E043C4F20201C4F2000328
:101CF0004FF080524FF440400A6418600B6843F084
:101D000001020A6008684FF460538007C4F20203BE
:101D1000F8D5996821F003029A609868194698608E
:101D20008B684FF4605213F00C00C4F20202F7D13A
:101D3000116801F0F90313609060106840F480317D
:101D4000116010684FF460538103C4F20203F8D5A8
:101D50005A6F42F0010159671946486F4FF46053BA
:101D60008007C4F20203F8D545F20842C0F240727F
:101D70005A6019684FF4E04041F080721A60C4F272
:101D8000000043685904FCD54FF46051C4F20201CD
:101D900008684FF460538201C4F20203F8D54FF48F
:101DA0007052C4F202024FF41441C3F6080140F22B
:101DB0000570996010609A6842F0020199601846B7
:101DC000826802F00C014FF460530829C4F2020348
:101DD000F6D1586C40F480425A64596E41F4804008
:101DE00058667047AFF30080AFF30080AFF3008018
:101DF00010B540F64424C2F200042046FFF790FBE1
:101E00004FF40052C4F20102A26242F61643054AA0
:101E1000C0F2020312206021E2622363BDE8104099
:101E2000FEF716BE10340008AFF30080AFF3008059
:101E3000C16A0A68136810B423F01F0414601368A1
:101E400013F00103FBD10C7A826A49683D2000FA45
:101E500004F00860536093600123936010BC7047E6
:101E60004FF40053C4F2010300211A6810B5196041
:101E7000930625D5164CE06A03685A6802B32169B7
:101E8000F1B12046FFF7D4FF206983683BB10522FA
:101E900001212270204698472178052914D000227C
:101EA0002261202383F31188606930B14FF0FF3342
:101EB000074943624A61FEF70BFF002383F3118851
:101EC000BDE81040FEF76CBD02202070E7E700BFC0
:101ED000440A0020AFF30080AFF30080AFF300802E
:101EE0004FF46053C4F20203F0B41D6C4FF4C844C5
:101EF000C4F2000445F000751D64D4F800321D0CD6
:101F00002B0443F0010545EA0023C4F80032002900
:101F100000F007810026C4F81C623346C4F804624E
:101F2000A446C4F80C623046C4F8146203F14807B2
:101F300003F14906FD00F40005F1804504F18044F9
:101F400005F5C84504F5C84402331C2B4CF837008E
:101F500068604CF836006060E8D11079146801269A
:101F60004FF4C84301F1FF3CC707C4F200030CEA79
:101F7000060C06FA04F500F1028100F00207FFB238
:101F800027B1D3F80C722F43C3F80C7200F0040091
:101F9000C7B22FB1D3F8140245EA0007C3F8147290
:101FA00097684834E00043F8347000F18044D76803
:101FB00004F5C84001244760D3F81C0210320543E1
:101FC0008C42C3F81C5200F0C680BCF1000F38D020
:101FD0001079176810F0010F06FA07F505D0D3F84D
:101FE00004C245EA0C0CC3F804C200F0020C5FFA0C
:101FF0008CFCBCF1000F05D0D3F80CC245EA0C0CE8
:10200000C3F80CC200F00400C0B220B1D3F814022F
:102010002843C3F81402906848374FEAC70C43F8C6
:1020200037000CF18040D76800F5C84001344760A4
:10203000D3F81C02103205438C42C3F81C5200F046
:102040008A8010791568C70706FA05FC05D5D3F80C
:1020500004724CEA0707C3F8047200F00207FFB2EB
:102060002FB1D3F80C724CEA0707C3F80C7200F0DA
:102070000400C7B22FB1D3F814024CEA0007C3F82A
:102080001472976805F14800C50043F8307005F1F7
:102090008040D76800F5C84502F110006F60D3F8A2
:1020A0001C724CEA0705C3F81C5217690279013407
:1020B00012F0010F06FA07F505D0D3F804C245EA7D
:1020C0000C0CC3F804C202F0020C5FFA8CFCBCF1E9
:1020D000000F05D0D3F80CC245EA0C0CC3F80CC2B3
:1020E00002F00402D2B222B1D3F814222A43C3F878
:1020F0001422483782684FEAC70C43F837200CF1A6
:102100008042C76802F5C84201345760D3F81C22E8
:102110008C4245EA0205C3F81C5200F1100290D12E
:1021200019E000F14802D50005F18043012503F5CF
:10213000C84305FA00F02843C4F84012C4F844121A
:1021400044F832105960C4F80412C4F81412C4F8E8
:102150000C02C4F81C024FF4C840C4F200004FF453
:102160006053D0F80012C4F2020321F00102C0F85B
:102170000022186C20F000711964F0BC7047D3F88D
:1021800004722F43C3F80472F7E600BFAFF3008078
:1021900010B50F4C40F20113626BC0F20103936063
:1021A000202383F311882069002805DA0948FEF707
:1021B00047FF21690029F9DB07480121FEF7A0FF4D
:1021C000002383F31188BDE81040FEF7E9BB00BF90
:1021D000780A0020800A00209C0A0020AFF30080CB
:1021E00038B5174C636BDD68AA0716D05A6922F020
:1021F00002005861202383F31188E169002905DA80
:102200001048FEF71DFFE369002BF9DB0E480121A2
:10221000FEF776FF002383F31188EB060BD5626B84
:102220001021D160202383F311880848FEF768FF4E
:10223000002383F31188BDE83840FEF7B1BB00BF2F
:10224000780A00208C0A0020980A0020A00A0020AA
:1022500038B5174C636B1D69AA0716D05A6922F06E
:1022600010005861202383F31188E169002905DA01
:102270001048FEF7E5FEE369002BF9DB0E4802216A
:10228000FEF73EFF002383F31188EB060BD5626B4C
:1022900010211161202383F311880848FEF730FFD5
:1022A000002383F31188BDE83840FEF779BB00BFF7
:1022B000780A00208C0A0020980A0020A00A00203A
:1022C00038B51B4D6A6B54681C23210753601DD41D
:1022D000630717D5686B8269816912F0700F21F06E
:1022E000700302F00701836118BF41F00801202349
:1022F00083F311880F4841EA0241FEF701FF0023F2
:1023000083F31188BDE83840FEF74ABB11682846C0
:10231000032321F0020100F8303B2023116083F3F6
:1023200011880021FEF7ECFE002383F31188CFE72C
:10233000780A0020A00A0020AFF30080AFF30080ED
:1023400010B540F67824C2F200042046FFF700F9E9
:1023500000214FF4C843C4F200030E200A46636311
:10236000BDE81040FFF7BCBDAFF30080AFF30080C5
:102370001C4B984210B504461AD0636B0220012210
:1023800020701A605968C90707D406200121FEF79A
:10239000C7FC636B5868C207F7D5616848F65B7283
:1023A00048680968D861C0F2010219605A6110BD1D
:1023B0001320B021FEF74CFB1420B021FEF748FBA0
:1023C0001520B021FEF744FB1620B021FEF740FB9C
:1023D0004FF46050C4F20200026C42F000710164DC
:1023E000CBE700BF780A0020AFF30080AFF3008096
:1023F00001290ED003D3022912D000207047436B6D
:10240000DA6892070ED1186910F0030018BF012096
:102410007047416BCB6813F0030018BF0120704771
:10242000436BF0E701207047AFF30080AFF300800B
:1024300030B4002932D1436BD968890734D0D3F83E
:10244000B041D3F8B411D3F8B831D360456BD5F8A7
:10245000BC311361436B2020D860DD68AD0742D0EA
:102460001379C4F3400060F30413C4F3800565F3EB
:102470004513D8B200F02005EDB21371002D2CD019
:102480009368E40864F31C039360034661F3030359
:10249000080A090C13711070518003E0012927D03C
:1024A000022927D030BC704719698907FAD0D3F8C0
:1024B000C041D3F8C411D3F8C851D560436BD3F8E9
:1024C000CC511561436B202018611D69A807C7D145
:1024D000586940F010055D61C2E71389640D64F32B
:1024E0000A031381D1E7586940F002055D61B7E73F
:1024F000436BA4E7436BDAE7AFF30080AFF30080F0
:102500004FF46053C4F202031A6B6FEA52216FEA70
:1025100041221A63196D6FEA51226FEA422119654F
:1025200000234168C4F202034FF48062596081685D
:102530009960C168D960016959614169196281690D
:10254000596201681960016AC4F202024FF4006323
:102550005160416A9160816AD160C16A5161016BC9
:102560001162416B5162C1691160C4F20203C26B16
:102570005A60016C9960426CDA60816C5961C26C7E
:102580001A62016D5962816B4FF440621960816D6E
:10259000C4F202024FF480535160C16D9160016E2C
:1025A000D160416E5161816E1162C16E5162416DA7
:1025B0001160C4F20203426F5A60816F9960C26F6A
:1025C000DA60D0F880105961D0F884201A62D0F80F
:1025D00088105962016F4FF4A0521960D0F8901022
:1025E000C4F202024FF4C0535160D0F894109160CD
:1025F000D0F89810D160D0F89C105161D0F8A0109C
:102600001162D0F8A4105162D0F88C101160D0F88B
:10261000AC10C4F202034FF4E0525960D0F8B0108D
:102620009960D0F8B410D960D0F8B8105961D0F8DA
:10263000BC101962D0F8C0105962D0F8A810C4F2CA
:1026400002021960D0F8C8305360D0F8CC10916005
:10265000D0F8D030D360D0F8D4105161D0F8D83051
:102660001362D0F8DC105162D0F8C4104FF400535C
:102670001160D0F8E420C4F202035A60D0F8E810E8
:102680009960D0F8EC20DA60D0F8F0105961D0F8F9
:10269000F4201A62D0F8F8105962D0F8E0001860FF
:1026A000704700BFAFF30080AFF30080AFF300804E
:1026B0002DE9F00F002302F00307C2F38006C2F3F6
:1026C000C105C2F341144FF00F09C2F3C3124FF01A
:1026D000010A38E0D0F820B02BEA0C0C4CEA0808CC
:1026E000C0F82080D0F804B00AFA03FC2BEA0C08EA
:1026F00048EA060BC0F804B04FEA430C4FF0030B56
:10270000D0F808800BFA0CFC6FEA0C0C0CEA0808F5
:1027100048EA0508C0F80880D0F80C800CEA0808E0
:1027200048EA0408C0F80C80D0F800800CEA080CD5
:102730004CEA070CC0F800C049081AD07600AD007A
:10274000A400BF00013303F0070C4FEA8C0C11F01A
:10275000010F02FA0CF809FA0CFCEDD0072BB9D9DD
:10276000D0F824B02BEA0C0C4CEA0808C0F82480FE
:10277000B8E7BDE8F00F7047AFF30080AFF300801B
:1027800038B540F6B02340F6B424C2F20004C2F2D9
:1027900000034FF6FF7220461A80FFF721F809491F
:1027A0004FF4605016224623C4F2000001F10C05DC
:1027B000C0F20102C0F20103E06121626562A2621F
:1027C000E36238BDA4330008AFF30080AFF30080AC
:1027D00040F6E420C2F2000008B500234268C4F2CB
:1027E00001036FF00101196193689847BDE8084043
:1027F000FEF7D6B8AFF30080AFF30080AFF30080F0
:102800000023C4F2010310B51A69DC681440A4B2B5
:10281000E1B204F00200C94382B21961002A1DD15D
:1028200004F0040082B2A2B904F0080082B25AB9DE
:1028300004F01004A4B21CB10B484268936A984794
:10284000BDE81040FEF7ACB807484368196A8847EE
:10285000EEE70548436899698847E5E70248436819
:1028600019698847DCE700BFE40A0020AFF3008065
:1028700010B540F6E424C2F200042046FEF7E0FE64
:102880000023C4F20103236110BD00BFAFF3008039
:102890000378012B70B5044664D0036900221A60E6
:1028A0005A639A63DA631A645A626268E668156862
:1028B0002489D168D06AB6FBF5F5013D013C01F0F1
:1028C0000F01ADB2A4B201299D62DC62586003D051
:1028D00002290CBF03210021506900F00F04012CD4
:1028E00025D0022C21D0D06900F00F04012C25D076
:1028F000022C32D0506A00F00F04012C25D0022C9B
:1029000026D0146B9068196224F0FF02002818BFCB
:1029100042F0010201210020596118618521DA602D
:102920004FF400425A64196070BD41F02001D06933
:1029300000F00F04012C41F01001D9D141F4807155
:10294000506A00F00F04012CD9D141F48051D8E72E
:1029500041F4005141F48051D3E741F4007141F456
:102960008071EDE71248844205D0236946F6680578
:102970009D61DD6199E74FF46055C4F202051920AD
:10298000696C41F001066E646B6A002643F0010237
:102990006A6270216E62FEF75BF81B207021FEF701
:1029A00057F84FF4F440C0F60320E060DDE700BFC5
:1029B000E40A0020AFF30080AFF30080AFF30080A3
:1029C00010B44468036904EBC10001F10C0403EB8B
:1029D00084040069626048B10220DA6800FA01F1FB
:1029E000114203D10A43C843DA60186110BC704732
:1029F0004FF48053C4F201039A8990B240F08001F1
:102A000099817047AFF30080AFF30080AFF300808F
:102A10004FF48843C4F200039A8990B240F08001D9
:102A200099817047AFF30080AFF30080AFF300806F
:102A30004FF4A053C4F201039A8990B240F0800190
:102A400099817047AFF30080AFF30080AFF300804F
:102A50002DE9F041456FB5F80C802C88A4B204F440
:102A60008073064698B21FFA88F8002855D12023B3
:102A700083F3118823409AB252B3371D0AE0A98824
:102A80003046C9B2FEF784FE288884B204F02003E1
:102A90009AB2EAB12307F2D004F0080398B204F026
:102AA0000202002814BF8021002193B214F0010F0C
:102AB00004F00404384618BF41F02001A2B20BB163
:102AC00041F040010AB141F48071FEF719FBD6E7ED
:102AD000002383F3118808F0800188B218B104F054
:102AE00080039AB242BB04F04004A4B29CB12023FC
:102AF00083F31188726CB16C8A422CD04FF6BF738D
:102B000008EA03024FF6BF71AA810023298083F3EC
:102B10001188BDE8F081BDE8F081202383F311889E
:102B20004FF40071301DFEF7EBFA002383F3118898
:102B30004FF6FF6129809AE7202383F3118806F17D
:102B40003000FEF705FC00280DDB81B2A9800023D0
:102B500083F31188C7E7B06B0028CFD0301D102158
:102B6000FEF7CEFACAE7301D0821FEF7C9FA28F0B1
:102B7000C00040F04003AB81E9E700BFAFF3008045
:102B800008B540F6F820C2F20000FFF761FFBDE88B
:102B90000840FDF705BF00BFAFF30080AFF3008032
:102BA00008B540F67030C2F20000FFF751FFBDE8F3
:102BB0000840FDF7F5BE00BFAFF30080AFF3008023
:102BC00008B540F6E830C2F20000FFF741FFBDE86B
:102BD0000840FDF7E5BE00BFAFF30080AFF3008013
:102BE00070B540F6F826C2F2000642F6F112304601
:102BF0000021C0F6000240F67035FEF791FDC2F2EA
:102C000000054FF4805342F61122C4F20103284616
:102C10000021C0F6000240F6E834C2F200047367F7
:102C2000FEF77EFD4FF4884342F63122C4F20003E2
:102C300020460021C0F600026B67FEF771FD4FF4DD
:102C4000A050C4F20100606770BD00BFAFF3008008
:102C500038B5037A354C002918BF0C46012B0546C0
:102C60002BD04FF480506B6F2168C4F20100834277
:102C700039D04FF4A052C4F20102934233D04DF642
:102C80008060C0F28020B0FBF1F18AB21A81A28884
:102C9000E088218942F4045240F0400080B241F0C3
:102CA000010142F02C02188292B289B2002099826E
:102CB0009A8118801A889B8838BD1D4885421BD090
:102CC0001C498D4225D01C4A9542CAD14FF460530D
:102CD000C4F202034720596C41F020025A64C0211B
:102CE000FDF7B6FEBDE74FF43D40C0F20150B0FB2A
:102CF000F1F18AB21A81CAE74FF46053C4F20203B9
:102D00002520596C41F010025A64C021FDF7A0FE45
:102D1000A7E74FF46053C4F202032620196C41F474
:102D200000321A64C021FDF793FE9AE74034000890
:102D3000F80A0020700B0020E80B0020AFF30080A1
:102D4000FEF7CEBFAFF30080AFF30080AFF300809B
:102D5000704700BFAFF30080AFF30080AFF3008097
:102D600030B5174D174AAB6917489A6185B0694667
:102D70000122FEF77DF9154CA869417F01F004039B
:102D8000DAB2AAB94FF0FF306421FEF7C9F9002882
:102D9000F2D004E0A06820F0604000F051FA002179
:102DA0000A4A0B480B46FEF713FC0028F2D0E3E773
:102DB00005486946FEF774F9002005B030BD00BF34
:102DC0007809002060350008980A0020600C002077
:102DD000780A0020AFF30080AFF30080AFF30080EB
:102DE00000B540F6782043F2505183B0C2F20000A3
:102DF000C0F60001FEF7CCFB0023009340F67840BC
:102E000042F661534FF4E8714022C0F60003C2F26B
:102E10000000FEF785F803B000BD00BFAFF30080EF
:102E200038B5202383F311884FF48053CEF200038A
:102E3000A8255C6805FB004500E000BF2046294648
:102E4000FEF74EFB0028F8D1034683F3118838BD06
:102E50004FF48050C4F2020002210022FFF728BC88
:102E60004FF48050C4F2020002210122FFF720BC7F
:102E700010B54FF48054C4F20204FFF7F1FF4FF491
:102E80000033A3610220FFF7CBFFFFF7E1FF022130
:102E9000A1610F20FFF7C4FF24692620FFF7C0FFC0
:102EA000C4F3400010BD00BFAFF30080AFF300805B
:102EB00070B54FF48054C4F202044FF40035064656
:102EC000FFF7CEFFA5610220FFF7AAFF86B9FFF743
:102ED000C7FFA5613A20FFF7A3FFFFF7B9FFFFF790
:102EE000B7FF4FF48050C4F202000222826170BD2D
:102EF000FFF7AEFF0223A361ECE700BFAFF3008052
:102F000038B505466D0800F001006C08FFF7D0FFEA
:102F100005F00100FFF7CCFF650804F00100FFF7A2
:102F2000C7FF6C0805F00100FFF7C2FF650804F059
:102F30000100FFF7BDFF6C0805F00100FFF7B8FFC7
:102F400004F00100FFF7B4FF6008BDE83840FFF768
:102F5000AFBF00BFAFF30080AFF30080AFF30080DE
:102F600010B5FFF785FF002814BF40240024FFF7A9
:102F70007FFF10B164F07F04E4B26408FFF778FFCC
:102F800010B164F07F00C4B26408FFF771FF10B1A4
:102F900064F07F01CCB26408FFF76AFF10B164F0FF
:102FA0007F02D4B26408FFF763FF10B164F07F03BF
:102FB000DCB26408FFF75CFF10B164F07F00C4B2BC
:102FC0006408FFF755FF10B164F07F01CCB22046D2
:102FD00010BD00BFAFF30080AFF30080AFF30080FF
:102FE00010B54FF48054C4F20204FFF739FF4FF4D8
:102FF0000033A3614FF4FA70FFF712FFFFF728FFC9
:103000000220A0615020FFF70BFF21698B0701D53B
:10301000002010BD4FF4C870FFF702FF012010BD63
:1030200008B54FF48050C4F2020002210022FFF7DD
:103030003FFBFFF70DFFBDE80840FFF7D1BF00BF22
:1030400070B50446FFF7CCFF002C24D0144D661E4B
:1030500005EBC6045520FFF753FF15F83600FFF7C0
:103060004FFF6078FFF74CFFA078FFF749FFE0784B
:10307000FFF746FF2079FFF743FF6079FFF740FF36
:10308000A079FFF73DFFE079FFF73AFF4420BDE864
:103090007040FFF735BFCC20FFF732FFF6E700BFE7
:1030A000480E0020AFF30080AFF30080AFF3008044
:1030B000F8B50546FFF794FFD5B9CC20FFF720FF00
:1030C000BE20FFF71DFFFFF74BFF0446FFF748FF49
:1030D00004B970B344EA0020FDF784F94FF076514B
:1030E000FDF7D6F904462846FFF7AAFF2046F8BDAB
:1030F000114E6F1E06EBC7045520FFF701FF16F8AF
:103100003700FFF7FDFE6078FFF7FAFEA078FFF7C3
:10311000F7FEE078FFF7F4FE2079FFF7F1FE607923
:10312000FFF7EEFEA079FFF7EBFEE079FFF7E8FE90
:10313000C6E700242046F8BD480E0020AFF300800B
:1031400038B54FF47A70FDF703FFFFF769FF074BBF
:10315000074DDC680020FFF7ABFF04F5FA74014669
:1031600020462960FDF704FFF4E700BF680900204E
:10317000C00F0020AFF30080AFF30080AFF30080FA
:10318000064B074A9869074910B5D4688161143421
:1031900000F05EF82046FDF7EBFEF8E77809002026
:1031A0006809002070350008AFF30080AFF300809D
:1031B00010B54FF48064C4F202044021204640F26E
:1031C0008232FFF775FA2046802140F28232FFF703
:1031D0006FFAFEF79DFA40F6F82040F60001C2F2C1
:1031E0000000C2F20001BDE81040FEF7C1BA00BF06
:1031F000024801214FF0FF32FEF782B8280B002071
:103200000B4B0C4A986970B54FF440644FF48055ED
:103210008261C4F202042E4664206683FDF798FEA4
:1032200064202583FDF794FEFFF7E2FFF4E700BF7B
:10323000780900207C350008AFF30080AFF30080F0
:1032400041F27043C2F2000318607047AFF3008090
:10325000F8B5274D41F214142B68C0F21114A342A3
:1032600031D044F26752C0F2231293421FD041F290
:103270001110C0F21110834200D0F8BD4FF48053FA
:10328000C4F202031B485969068946F26767C6F211
:10329000666781F0040187FB06725961920801217B
:1032A000FEF7E6F9144B2C6000201860F8BD4FF4CF
:1032B0008053C4F202030F48596981F004025A6135
:1032C00001210289ECE70C4C21684A1C0A2A226081
:1032D000D3DD084848F21F530189C5F2EB1383FB85
:1032E000011252090121FEF7C3F900202060C4E752
:1032F00070140020E40A002068140020AFF300805E
:1033000040F6E42040F60C0108B5C2F20000C2F21B
:103310000001FEF79DF941F26C43C2F2000341F255
:103320001412C0F211121A6008BD00BFAFF3008082
:1033300069646C65000000000000000000000000EF
:103340006D61696E00168711040448080C1014188A
:10335000001C1D1E1F2000000000000000000000D7
:10336000C1160008A116000801170008E1160008A0
:10337000F1160008D1160008B116000891160008D1
:10338000106002400860024000000B00286002400C
:103390000860024006010C004060024008600240E4
:1033A00010020D00586002400860024016030E0033
:1033B000706002400C60024000040F008860024010
:1033C0000C60024006051000A06002400C60024044
:1033D00010061100B86002400C60024016072F0072
:1033E000106402400864024000083800286402406B
:1033F0000864024006093900406402400864024043
:10340000100A3A005864024008640240160B3B0060
:10341000706402400C640240000C3C00886402406E
:103420000C640240060D4400A06402400C6402409B
:10343000100E4500B86402400C640240160F4600AE
:1034400000960000000000400000000000000000A6
:103450000000000000000000FFFFFFFFFFFFFFFF74
:10346000FFFFFFFF000000000000000000A00000C0
:1034700000000000FFFFFFFFFFFFFFFFFFFFFFFF58
:10348000000000770000000000A000000000000025
:10349000FFFFFFFFFFFFFFFFFFFFFFFF00000088B0
:1034A000000000000A01000000000000FFFFFFFF15
:1034B000FFFFFFFFFFFFFFFF99000000000000007B
:1034C0005000841400000000FFFFFFFFFFFFFFFF1C
:1034D000FFFFFFFF000000000010000000000000E0
:1034E00000000000FFFFFFFFFFFFFFFFFFFFFFFFE8
:1034F00000000000000000000000000000000000CC
:10350000FFFFFFFFFFFFFFFFFFFFFFFF00000000C7
:10351000000000000000000000000000FFFFFFFFAF
:10352000FFFFFFFFFFFFFFFF0000000000000000A3
:103530000000000000000000FFFFFFFFFFFFFFFF93
:10354000FFFFFFFF0000000000000000000000007F
:10355000400000000600180000000000000000000D
:103560007265636569766572000000000000000006
:103570007461736B32306D7300000000626C696EB1
:043580006B65720005
:1035880000C20100000000000000000040420F00DF
:10359800E803000000000000000000000000000038
:1035A8000100000000000000000000000000000012
:1035B8000000000000000000000000000000000003
:040000050800075197
:00000001FF
